:1000000005C100000C949F2D0C94CA2D0C94F52D65
:100010000C94202E0C944B2E0C94762E0C94A12E26
:100020000C94CC2E24C1000022C1000020C100008D
:100030001EC100001CC100001AC1000018C1000050
:1000400016C1000014C1000012C1000010C1000060
:10005000B7C100000CC100000AC100000C94F72ECB
:1000600006C100000C94F3320C94293300C1000047
:10007000FEC00000FCC00000FAC00000F8C0000094
:10008000F6C00000F4C00000F2C00000F0C00000A4
:100090000C947F330C94B533EAC00000E8C0000034
:1000A000E6C00000E4C00000E2C00000E0C00000C4
:1000B000DEC00000DCC00000DAC00000D8C00000D4
:1000C000D6C00000D4C000000C94E0280C940B347F
:1000D0000C944134CCC000000C9497340C94CD3473
:1000E000C6C0000000000A0B02090C0D0E08070331
:1000F00004010000000000000000000000000000FB
:1001000000000000000000000000000000000000EF
:1001100012111000000000000000000000000000AC
:100120000000000000000000000001021020200874
:100130000810204010204080020102010804020142
:1001400001020408102040808040201008040201B1
:10015000800402018040201008040201080402010A
:100160000102040810204080010204081020408091
:1001700005050505070508080808020202020A0A23
:100180000808040404040101010101010101030341
:10019000030303030303040707070C0C0C0C0C0CEC
:1001A0000C0C0202020206060606060606060B0BE9
:1001B0000B0B0B0B0B0B000020002300260029006B
:1001C0002C002F003200000100000301060109018C
:1001D00000002200250028002B002E0031003400F2
:1001E00002010000050108010B01000021002400AC
:1001F00027002A002D003000330001010000040117
:1002000007010A015233DE336A34F63411241FBE6B
:10021000CFEFD1E2DEBFCDBF00E00CBF13E0A0E026
:10022000B2E0ECE4FBE600E00BBF02C007900D92E9
:10023000AE3AB107D9F729E0AEEAB3E001C01D92AA
:10024000A33DB207E1F711E0C6E0D1E000E006C04F
:1002500021970109802FFE010E947335C230D1071A
:1002600080E00807A9F70E94DC290C94A435C8CEC9
:10027000CF92DF92EF92FF920E94412F6B017C019F
:100280008FE10E94A1314091AF035091B003609182
:10029000B1037091B203892B21F18091BD0390913C
:1002A000BE0301969093BE038093BD03D701C601A0
:1002B000841B950BA60BB70B8093B3039093B403E9
:1002C000A093B503B093B603C092AF03D092B0032E
:1002D000E092B103F092B203FF90EF90DF90CF90E5
:1002E00008958091BD039091BE0301979093BE0342
:1002F0008093BD034C195D096E097F094093B303D8
:100300005093B4036093B5037093B603DDCF0F939E
:100310001F93F801D9019C91DA017C91781302C0F6
:10032000691739F0A081B181891751F01197B18314
:10033000A083FA018083D9016C931F910F910895D6
:100340001196F5CF0F931F9369B186B163FB6627B2
:1003500060F90DEB13E025EC33E046EC53E086FB4F
:10036000882780F9D4DF69B189B162FB662760F91B
:100370000BEB13E023EC33E044EC53E0881F8827B9
:10038000881FC5DF6CB18091090165FB662760F9A4
:1003900009EB13E021EC33E042EC53E08170B7DF6E
:1003A0006CB18FB16295617007EB13E02FEB33E016
:1003B00040EC53E086958170AADF1F910F9108955C
:1003C0001F920F920FB60F9211240BB60F922F931C
:1003D0003F934F935F936F937F938F939F93AF93CD
:1003E000BF93EF93FF938091AE03811117C0AADFF3
:1003F00082E08093AE03FF91EF91BF91AF919F9107
:100400008F917F916F915F914F913F912F910F90BD
:100410000BBE0F900FBE0F901F9018958150E9CF23
:100420001092BE031092BD0362E082E10E94383157
:1004300062E08FE10E94383142E050E068E371E011
:1004400085E00E94252D0E94412F6093AF03709399
:10045000B0038093B1039093B2038FEF9FE7A0E0C6
:10046000B0E08093B3039093B403A093B503B0932B
:10047000B6030895CF92DF92EF92FF920F931F93EE
:10048000F894C090B303D090B403E090B503F0901B
:10049000B60378940E94412F0091AF031091B003EE
:1004A0002091B1033091B203601B710B820B930B4F
:1004B00097FF04C06FEF7FEF8FEF9FE797018601F3
:1004C000F7FE07C00027112798010C191D092E09F6
:1004D0003F0906171707280739079CF41C141D0449
:1004E0001E041F043CF090958095709561957F4F98
:1004F0008F4F9F4F1F910F91FF90EF90DF90CF9004
:100500000895C701B601F6CFF8948091BD0390918C
:10051000BE037894089561E082E20E94383161E080
:1005200083E20E94383161E08CE00E943831E1E8DA
:10053000F0E08081887F816080830895CF93DF938E
:10054000EC0160E018161906C4F482E20E947431CE
:1005500061E083E20E947431BE01D7FF03C0719550
:10056000619571096F3F710519F014F06FEF70E03C
:100570008CE0DF91CF910C94FE2F83E20E947431C6
:1005800061E082E2E7CF61E085E20E94383161E01C
:1005900084E20E94383161E088E00E943831E1EA6B
:1005A000F0E08081887F816080830895CF93DF931E
:1005B000EC0160E018161906C4F485E20E9474315B
:1005C00061E084E20E947431BE01D7FF03C07195DF
:1005D000619571096F3F710519F014F06FEF70E0CC
:1005E00088E0DF91CF910C94FE2F84E20E94743159
:1005F00061E085E2E7CF90E080E008950F931F93DC
:10060000009709F489C06115710509F485C000914E
:10061000D0021091D1022091D2023091D3020E3F2C
:100620001F4F2F4F3F4F09F068C04FEF5FEFBA01E8
:100630004093D0025093D1026093D2027093D302C0
:100640004091D0025091D1026091D2027091D302B8
:10065000DC011296ED91FC9180819181A281B381A0
:100660008093C3049093C404A093C504B093C604BC
:1006700084819581A681B7818093BF049093C00443
:10068000A093C104B093C20480859185A285B385EF
:100690008093BB049093BC04A093BD04B093BE04AC
:1006A00084859585A685B7858093B7049093B80413
:1006B000A093B904B093BA041092B3041092B40496
:1006C0001092B5041092B6040E94C30C88EE9CE010
:1006D0009093C8038093C7039093CA038093C90380
:1006E0000E94B20B009731F421E030E03093C8044F
:1006F0002093C7041F910F9108950091D00210918B
:10070000D1022091D2023091D302DB010D931D93CF
:100710002D933C93139794CF8FEF9FEFEBCF8F9256
:100720009F92AF92BF92CF92DF92EF92FF921F9370
:10073000CF93DF934B015C011091CA0482E090E0FB
:100740009093C8048093C70481149104A104B10458
:1007500041F48091CA04811104C08091C904C1E0B0
:100760008111C0E0C12CD12C76018091CA04811185
:1007700006C08091C904811102C0CC23D9F083E066
:1007800090E09093C8048093C704CC2379F1CCE91E
:10079000DFEF111102C00E944D10CE01DF91CF9109
:1007A0001F91FF90EF90DF90CF90BF90AF909F9000
:1007B0008F9008956AE070E080E090E00E94662FDC
:1007C00080E1C80E87E2D81EE11CF11C8FEF88166D
:1007D0009806A806B80631F0C1E08C149D04AE045A
:1007E000BF0408F0C0E080E0F1D7BFCFD0E0C0E0A8
:1007F000D0CFCF92DF92EF92FF920F931F93CF93C0
:10080000DF938F3F910511F008F050C02091C7048D
:100810003091C8042330310539F02091C70430915C
:10082000C8042130310531F424E030E03093C804AD
:100830002093C7046A017B01EC0182309105A0F08E
:1008400011E0AE01C701B6018CD7AB01BC01CE01EE
:100850001123F9F0DF91CF911F910F91FF90EF904D
:10086000DF90CF900C9476128C01000F111F09536A
:100870001C4FD8018D919C91892B11F30E948012FD
:100880000297F1F6D801ED91FC91CE011995182F40
:10089000D8CF0E94981290E080E0DF91CF911F9115
:1008A0000F91FF90EF90DF90CF9008958FEF9FEF23
:1008B000F4CF80E08BC7CF93DF9386E090E09093F6
:1008C000C8048093C704DBD7EC01E7ECF3E084E0D5
:1008D000DF011D928A95E9F70E94E50F1092C80486
:1008E0001092C704CE01DF91CF9108958091C90481
:1008F00008958091B20408956093D0027093D1025C
:100900008093D2029093D30290E080E008952F92DA
:100910003F924F925F926F927F928F929F92AF928F
:10092000BF92CF92DF92EF92FF920F931F93CF93DC
:10093000DF93CDB7DEB72E970FB6F894DEBF0FBEAC
:10094000CDBF80909C0290909D02A0909E02B0909E
:100950009F02A501940160917B0970917C098091AF
:100960007D0990917E090E94D22A8823C9F0C50191
:10097000B401AFD5882309F4B3C260919C02709191
:100980009D0280919E0290919F02A3D58111B3C2D6
:1009900040927B0950927C0960927D0970927E0999
:1009A000B3DDBC01990F880B990B0E946C2B209131
:1009B000C0023091C1024091C2025091C3020E9414
:1009C000C12C6093AD097093AE098093AF099093E9
:1009D000B0092091C4023091C5024091C6025091E5
:1009E000C7020E94C12C69877A878B879C872091D8
:1009F000A3093091A4094091A5095091A6090E942C
:100A00006D2A6093B1097093B2098093B3099093F2
:100A1000B4098090A0029090A102A090A202B09090
:100A2000A302A501940160918509709186098091C6
:100A30008709909188090E94D22A8823C9F0C501AC
:100A4000B40147D5882309F45FC26091A002709178
:100A5000A1028091A2029091A3023BD581115FC2B5
:100A6000C0928509D0928609E0928709F0928809A0
:100A700001DD0E946C2B2091C8023091C902409187
:100A8000CA025091CB020E94C12C9B01AC0160E0D4
:100A900070E080E89FE30E94D62A2091CC0230913A
:100AA000CD024091CE025091CF020E94C12C6093A2
:100AB000B5097093B6098093B7099093B80960900F
:100AC0009D0970909E0900919B0910919C09E091ED
:100AD0008C04F0918D0480809180A280B380A50168
:100AE0009401D8016D917D918D919C910E94BD2CB6
:100AF00087FF36C2A5019401F801EC5BFF4F6081CE
:100B00007181828193810E94D22A18160CF02BC227
:100B1000E091A709F091A809FA83E9837F01EE0C1F
:100B2000FF1CEE0CFF1C6801CE0CDF1CA50194011C
:100B3000D6016D917D918D919C910E94BD2CB4E068
:100B4000EB0EF11CE00EF11E18160CF0FCC1F4E0E7
:100B5000CF1AD108A5019401D60114966D917D910B
:100B60008D919C9117970E94BD2C18160CF4E0C132
:100B700029813A813093A8092093A709220F331FB6
:100B8000220F331F3E872D87F901E00FF11FC08030
:100B9000D180E280F3802C5F3F4F3A832983F901B3
:100BA000E00FF11F80819181A281B3818D839E83AB
:100BB000AF83B8879C01AD01C701B6010E94D22A5C
:100BC0008111DCC1A7019601C501B4010E94D22A9E
:100BD00087FFCEC1AD85BE85A60DB71D2D903D907A
:100BE0004D905C90C090A402D090A502E090A60227
:100BF000F090A702A2019101C701B6010E94D22A7A
:100C000087FF14C2C092A909D092AA09E092AB0949
:100C1000F092AC09209190023091910240919202A1
:100C20005091930260E070E08FE793E40E94D62A2F
:100C30002091A9093091AA094091AB095091AC09C2
:100C40000E94C12C6B017C010091AC021091AD029D
:100C5000B091AE02BD83E091AF02E9839B01AC018C
:100C6000B8018B2F9E2F0E94D22A87FD16C00091BB
:100C7000B0021091B102F091B202FD832091B30253
:100C800029839601A701B8018F2F99810E94BD2C5D
:100C900018161CF08601ED82F982B8018D819981C8
:100CA0000E94A72B6B017C0159D48111D9C1C701C6
:100CB000B6010FD48111D4C120E030E040E857E400
:100CC000C701B6010E94C12B6B017C0120E030E01E
:100CD000A9010E94D22A87FFC6C1C701B601905858
:100CE0000E943E2B88279927861B970B27DC209193
:100CF000A9093091AA094091AB095091AC096091C2
:100D0000B4027091B5028091B6029091B7020E9430
:100D1000C12C6B017C01209194023091950240918D
:100D200096025091970260E070E08FE793E40E9492
:100D3000D62A9B01AC01C701B6010E94C12C6B01F0
:100D40007C010091B8021091B9023091BA023D8342
:100D50008091BB0289839601A701B8018D81998199
:100D60000E94D22A87FD16C00091BC021091BD02DC
:100D70009091BE029D83A091BF02A9839601A70115
:100D8000B801892F9A2F0E94BD2C18161CF08601DD
:100D9000ED82F982B8018D8199810E94A72B6B01A8
:100DA0007C01DCD3811165C1C701B60192D38111E9
:100DB00060C120E030E040E857E4C701B6010E947E
:100DC000C12B6B017C0120E030E0A9010E94D22AF6
:100DD00087FF52C1C701B60190580E943E2B882759
:100DE0009927861B970BE2DB89859A85AB85BC85A5
:100DF0008093A3099093A409A093A509B093A60991
:100E00004091790450917A0460917B0470917C0444
:100E100090E080E0EEDC409181045091820460918A
:100E200083047091840481E090E0E3DC60917904B4
:100E300070917A0480917B0490917C046F5F7F4F66
:100E40008F4F9F4F6093790470937A0480937B0453
:100E500090937C04A0918C04B0918D04BA83A983F3
:100E60000E946A2B9B01AC0160917D0470917E040D
:100E700080917F04909180040E94C12CE981FA81C5
:100E80006083718382839383809181049091820433
:100E9000A0918304B09184040196A11DB11D80939B
:100EA000810490938204A0938304B09384042E96CB
:100EB0000FB6F894DEBF0FBECDBFDF91CF911F916B
:100EC0000F91FF90EF90DF90CF90BF90AF909F90E9
:100ED0008F907F906F905F904F903F902F900895EC
:100EE00060919C0270919D0280919E0290919F0260
:100EF00035D3811142CD40909C0250909D0260906C
:100F00009E0270909F0244CD6091A0027091A10258
:100F10008091A2029091A30221D3811196CDC0901D
:100F2000A002D090A102E090A202F090A30298CD7E
:100F3000E981FA813197FA83E98309CEE981FA815F
:100F40003196FA83E983D7016D917D918D919D91C1
:100F50007D01A50194010E94D22A18167CF708CEC3
:100F60001A82198205CEE0E1F0E0FA83E98300CE2F
:100F7000E981FA816E0E7F1ED30130CEED85FE85AC
:100F8000E60DF71D208031804280538029813A810F
:100F9000620E731ED3018D919D910D90BC91A02D79
:100FA00089839A83AB83BC839C01AD01C201B101EB
:100FB0000E94D22A882309F415CEA50194016D81DF
:100FC0007E818F8198850E946D2A4B015C01A7016B
:100FD00096016D817E818F8198850E946D2A9B018B
:100FE000AC01C501B4010E94D62A6B017C01AC01A1
:100FF0009B0160E070E080E89FE30E946D2A2981F8
:101000003A814B815C810E94C12C4B015C01A201A1
:101010009101C701B6010E94C12C9B01AC01C50121
:10102000B4010E946E2A1B012C01DCCDC090A802E5
:10103000D090A902E090AA02F090AB02A201910127
:10104000C701B6010E94BD2C18160CF4DBCD20920E
:10105000A9093092AA094092AB095092AC09DACDA5
:10106000C12CD12C7601C701B6010E943E2BCB01C9
:101070003DCEC12CD12C7601C701B6010E943E2B7A
:10108000CB01B1CE8F929F92AF92BF92CF92DF925F
:10109000EF92FF92CF9384E090E0E4D1E1EEF3E0B1
:1010A00085EBDF011D928A95E9F789E894E090933A
:1010B000E8038093E7038CE894E090932204809304
:1010C00021048DE794E09093F6038093F503F09369
:1010D0004C04E0934B04F093E603E093E50381E0D6
:1010E00090E090938A048093890489E093E0909340
:1010F000EC038093EB032EE834E030938D042093CF
:101100008C0480E090E0A0E2B1E4809385049093A9
:101110008604A0938704B09388048FE692E1A3E04D
:10112000BBE380937D0490937E04A0937F04B093EF
:10113000800486ED9BE1A0EAB3E680936704909378
:101140006804A0936904B0936A048DE39CE8A7E760
:10115000B0E680936B0490936C04A0936D04B093FD
:101160006E0480E39CEAA9E7B4E480936F04909353
:101170007004A0937104B09372048EEF9BECA9E00D
:10118000B2E38093730490937404A0937504B093B6
:10119000760485ED93E09093E4038093E3038BEC76
:1011A00093E09093D6038093D5038BE193E09093E3
:1011B000CC038093CB039093CE038093CD03909385
:1011C000D0038093CF039093D2038093D103909365
:1011D000D4038093D30387E794E09093DA0380935A
:1011E000D90387E694E09093D8038093D703309394
:1011F000DC032093DB03E9EAF9E080E1DF011D92E3
:101200008A95E9F7E5E7F9E084E3DF011D928A9525
:10121000E9F788E492E090939C0980939B0980E031
:1012200092E090939E0980939D09809198029091FD
:101230009902A0919A02B0919B028093A309909386
:10124000A409A093A509B093A60960919C0270918E
:101250009D0280919E0290919F023BD1882309F4C8
:1012600078C060919C0270919D0280919E02909145
:101270009F022FD1811178C080927B0990927C09C6
:10128000A0927D09B0927E0981E090E0A0E0B0E0FC
:101290008093760990937709A0937809B0937909A0
:1012A000BFD881E080937A0910927F096091A002F3
:1012B0007091A1028091A2029091A3020AD1882389
:1012C00009F45BC06091A0027091A1028091A2021A
:1012D0009091A302FED081115BC0C0928509D0928B
:1012E0008609E0928709F0928809C12CD12C7601F9
:1012F000C394C0928009D0928109E0928209F09251
:1013000083098ED8C1E0C093840910928909C092E4
:101310008A09D0928B09E0928C09F0928D09FBD852
:10132000C0938E0910928F09C0929009D0929109B2
:10133000E0929209F092930926D9C0939409CF9133
:10134000FF90EF90DF90CF90BF90AF909F908F90E5
:10135000089560919C0270919D0280919E029091EF
:101360009F02FCD081117DCF80909C0290909D02C5
:10137000A0909E02B0909F027FCF6091A0027091DA
:10138000A1028091A2029091A302E8D081119ACF8C
:10139000C090A002D090A102E090A202F090A3021F
:1013A0009CCF80917509811103C081E080937509FC
:1013B00080917F09811103C081E080937F09809132
:1013C0008909811116C081E08093890980918A0979
:1013D00090918B09A0918C09B0918D090197A1057D
:1013E000B10539F480918E09882319F090E080E0EE
:1013F000A5D880918F09811116C081E080938F0953
:101400008091900990919109A0919209B0919309CE
:101410000197A105B10539F480919409882319F049
:1014200090E080E0C3C8089560E070E080E89FE746
:10143000089560E070E080E89FE7089560E070E064
:1014400080E89FEF089560E070E080E89FEF0895E6
:1014500060E070E080EC9FEF089560E070E080EC69
:101460009FEF0895F5DF6093C5097093C6098093D7
:10147000C7099093C809F1DF6093B9097093BA095D
:101480008093BB099093BC09CFDF6093C10970932F
:10149000C2098093C3099093C409CBDF6093BD094F
:1014A0007093BE098093BF099093C009C7DF609312
:1014B000C9097093CA098093CB099093CC09C3DF03
:1014C0006093CD097093CE098093CF099093D00992
:1014D0000895CF92DF92EF92FF92CF936B017C0140
:1014E000AC019B016091C1097091C2098091C3094F
:1014F0009091C4090E94D22AC1E0882371F0A7010B
:1015000096016091C9097091CA098091CB099091A7
:10151000CC090E94D22A8111C0E08C2FCF91FF907C
:10152000EF90DF90CF9008950F931F938B019C0154
:101530000027112720783F770115110520483F47E4
:1015400049F4AB01BC016F77772781E0452B462B2F
:10155000472B09F480E01F910F910895E5CF4F923A
:101560005F926F927F928F929F92AF92BF92CF9233
:10157000DF92EF92FF920F931F93F8944090A20492
:101580005090A3046090A4047090A504C0909604A9
:10159000D0909704E0909804F09099044130510560
:1015A00009F0A4C09B01AC0124193509460957096B
:1015B00029013A0100919E0410919F042091A004FA
:1015C0003091A10448015901840C951CA61CB71C3C
:1015D00080169106A206B306A0F400919A04109119
:1015E0009B0420919C0430919D040F5F1F4F2F4F4F
:1015F0003F4F00939A0410939B0420939C043093D4
:101600009D0480929E0490929F04A092A004B092A8
:10161000A10400919A0410919B0420919C043091A4
:101620009D048092A6049092A704A092A804B09270
:10163000A9040093AA041093AB042093AC04309344
:10164000AD046093A2047093A3048093A4049093C8
:10165000A504A0EDB7E0A30192010E947B356C0DBB
:101660007D1D8E1D9F1D609396047093970480933B
:101670009804909399040091D0021091D102209186
:10168000D2023091D3020F3F1F4F2F4F3F4FF1F047
:101690000091D0021091D1022091D2023091D30258
:1016A0000E3F1F4F2F4F3F4F89F0C090D002D09078
:1016B000D102E090D202F090D30221E08C149D047C
:1016C000AE04BF0408F420E02093B20478941F9184
:1016D0000F91FF90EF90DF90CF90BF90AF909F90D1
:1016E0008F907F906F905F904F9008954B015C01B9
:1016F00084189508A608B708A3019201261B370B8A
:10170000480B590B6415750586059705D0F08216B0
:101710009306A406B50640F420E030E0A901811448
:101720009104A104B10491F4A0EDB7E00E947B35CF
:10173000A7019601261B370B480B590BCA01B901AB
:10174000C5CF82169306A406B50670F7A0EDB7E0E4
:10175000A50194010E947B356C0D7D1D8E1D9F1D82
:10176000B5CFFDCECF93DF9300D01F92CDB7DEB7BC
:101770001C821B821A8219821092AE041092AF044E
:101780001092B0041092B104BE016F5F7F4FCE0182
:1017900003960E94A82869817A818B819C810E948E
:1017A0009621009761F4BE016F5F7F4FCE010396D3
:1017B0000E94B42869817A818B819C812FD50F90FA
:1017C0000F900F900F90DF91CF910895FF920F939C
:1017D0001F93CF93DF93082F60E070E0CB010E944E
:1017E000662FFF24F3940E947F20EC01892B89F05F
:1017F00010E0CE3F8FEFD80769F0002361F160E081
:1018000070E0CB010E94662F81E090E0892B59F3B4
:1018100022C011E026D5EC01892B21F0CE3F8FEFBD
:10182000D80759F711111EC011E0229609F410E0F3
:101830000E942F20EC01892B21F0CE3F8FEFD8079B
:10184000E1F6111111C011E0CE3F8FEFD80709F476
:1018500010E001110BC0CE01DF91CF911F910F91CC
:10186000FF90089511E0E4CF11E0F3CF60E070E065
:10187000CB010E94662F1F25812F90E0C7CFCF9309
:10188000DF938091B204882321F060E070E0CB0107
:101890004DD636D6D0E0C0E0892B71F06AE070E01A
:1018A00080E090E00E94662F81E090DF29D62196AB
:1018B000C03D27E0D20781F728D60E94EA21109286
:1018C000CA041092C9041092C3041092C404109266
:1018D000C5041092C6041092BF041092C004109266
:1018E000C1041092C2041092BB041092BC04109266
:1018F000BD041092BE041092B7041092B804109266
:10190000B9041092BA041092B3041092B404109265
:10191000B5041092B6044EEF5FEF6FEF7FEF409388
:10192000D0025093D1026093D2027093D3021092EE
:10193000B204E6EAF4E028E0DF011D922A95E9F717
:101940001092A2041092A3041092A4041092A50471
:1019500010929E0410929F041092A0041092A10471
:1019600010929A0410929B0410929C0410929D0471
:101970001092960410929704109298041092990471
:10198000DF91CF9108951092D6041092D70410924F
:10199000D8041092D9041092D5048091DE0490915D
:1019A000DF049093D4048093D3041092D204109255
:1019B000D1041092CD041092CE041092CF04109254
:1019C000D0041092DB041092DA0490E080E00895D5
:1019D000CF92DF92EF92FF920F931F93CF938C01E0
:1019E000019709F055C02091DE043091DF04809109
:1019F000D3049091D4044091DE045091DF045093BD
:101A0000D4044093D3042817390781F01092D204EC
:101A10001092D1041092CD041092CE041092CF04F3
:101A20001092D0041092DB041092DA048091DE044C
:101A30009091DF04019761F58091DA049091DB04C5
:101A4000892B21F48091D402811112C08091DA0493
:101A50009091DB040197E1F48091CD049091CE0444
:101A6000A091CF04B091D0040197A105B10581F4F4
:101A70001092CD041092CE041092CF041092D00494
:101A80001092D40282E090E09093DB048093DA0419
:101A90008091DE049091DF04019709F01CC18091D0
:101AA000F4049091F5048017910709F014C1809116
:101AB000F0049091F104A091F204B091F304009726
:101AC00009F409C12091EF0421110DC04091F004E7
:101AD0005091F1046091F2047091F304452B462B70
:101AE000472B09F4F8C02091DA043091DB0422304E
:101AF000310509F0F0C02091D1042111ECC0FC01A6
:101B0000C080D180E280F3808091D504882309F4DD
:101B1000D3C08091E1049091E204892B09F4FEC0C6
:101B20002091E1043091E20481E02230310509F096
:101B300080E02091E1043091E204C1E021303105E0
:101B400049F02091E1043091E204C1E022303105F6
:101B500009F0C0E0882309F456C02091EB043091CD
:101B6000EC044091ED045091EE04C701B6010E94CF
:101B7000BD2C87FD14C02091EB043091EC04409102
:101B8000ED045091EE046091D6047091D7048091D9
:101B9000D8049091D9040E94D22A87FD22C02091B6
:101BA000EB043091EC044091ED045091EE04C70138
:101BB000B6010E94BD2C181634F52091EB0430912B
:101BC000EC044091ED045091EE046091D6047091C4
:101BD000D7048091D8049091D9040E94D22A81110F
:101BE00012C08091E3049091E404A091E504B091C7
:101BF000E604892B8A2B8B2B19F481E08093D20485
:101C000081E08093D104CC2309F456C02091EB04E9
:101C10003091EC044091ED045091EE04C701B601FF
:101C20000E94D22A87FF14C02091EB043091EC046B
:101C30004091ED045091EE046091D6047091D70468
:101C40008091D8049091D9040E94BD2C87FF22C0B6
:101C50002091EB043091EC044091ED045091EE049E
:101C6000C701B6010E94D22A811126C02091EB043F
:101C70003091EC044091ED045091EE046091D60453
:101C80007091D7048091D8049091D9040E94BD2C02
:101C9000181694F48091E3049091E404A091E50473
:101CA000B091E604892B8A2B8B2B19F481E0809369
:101CB000D20481E08093D10481E09091D10491110C
:101CC00080E08093D504C092D604D092D704E092ED
:101CD000D804F092D9040130110509F067C1809150
:101CE000DA049091DB04892BD9F41092E00410926D
:101CF000D1048091D402882379F082E090E090931F
:101D0000DB048093DA041092D4022091DE04309137
:101D1000DF0481E0232BE9F080E01BC081E009CFE4
:101D20001092D4028091E004882349F01092D204EA
:101D30001092DB041092DA041092E004EDCF80914F
:101D4000DE049091DF04892BE1F08091D1041092A0
:101D5000D1042091DA043091DB042230310509F4FA
:101D60005EC088F42115310509F448C021303105E1
:101D700009F4F3C01092D2041092D1041092E0043E
:101D800038C081E0E6CF2330310509F4B1C02430FA
:101D9000310581F74091CD045091CE046091CF047C
:101DA0007091D004411551056105710561F04150F4
:101DB0005109610971094093CD045093CE04609399
:101DC000CF047093D0044091CD045091CE04609123
:101DD000CF047091D004452B462B472BD9F420918A
:101DE000DC043091DD042130310509F046C0109249
:101DF000D2041092DB041092DA040CC08091D40259
:101E0000882341F082E090E09093DB048093DA0431
:101E10001092D4021092CB048091D204CEC08823B9
:101E2000C9F38091E3049091E404A091E504B0919A
:101E3000E604181619061A061B060CF07DC08091E0
:101E4000DE049091DF04019709F076C08091E304ED
:101E50009091E404A091E504B091E6048093CD0450
:101E60009093CE04A093CF04B093D00483E090E08D
:101E70009093DB048093DA04CDCF4091E704509136
:101E8000E8046091E9047091EA04452B462B472B46
:101E9000A9F01092D2048091E7049091E804A091F7
:101EA000E904B091EA048093CD049093CE04A0930A
:101EB000CF04B093D00481E090E0DACF882399F08A
:101EC0008091D5029091D602A091D702B091D8020C
:101ED0008093CD049093CE04A093CF04B093D0040C
:101EE00084E090E0C5CF1092D20482E090E0C0CFB1
:101EF0008091CD049091CE04A091CF04B091D004F4
:101F00000097A105B10559F00197A109B109809386
:101F1000CD049093CE04A093CF04B093D0048091CD
:101F2000CD049091CE04A091CF04B091D004892B20
:101F30008A2B8B2B09F06ECF8091D5029091D6021F
:101F4000A091D702B091D802892B8A2B8B2B09F450
:101F50004ECF81E08093D204B3CF4091CD04509115
:101F6000CE046091CF047091D004411551056105F4
:101F7000710561F041505109610971094093CD0427
:101F80005093CE046093CF047093D0044091CD045D
:101F90005091CE046091CF047091D004452B462B14
:101FA000472B09F037CF8111C7CF9FCF8091CB044A
:101FB000882309F431CF8091CC04CF911F910F91E8
:101FC000FF90EF90DF90CF9008951092D60410927A
:101FD000D7041092D8041092D9041092D50410920C
:101FE000DB041092DA041092D4041092D3041092FD
:101FF000F5041092F4041092D2041092D1041092BD
:10200000CD041092CE041092CF041092D0041092FE
:10201000CC041092CB041092F0041092F1041092B0
:10202000F2041092F3041092EF041092EB04109259
:10203000EC041092ED041092EE0488EE93E0A0E020
:10204000B0E08093D5029093D602A093D702B093CC
:10205000D8021092E7041092E8041092E90410925A
:10206000EA041092E3041092E4041092E504109242
:10207000E6041092E2041092E10481E08093D4021D
:102080001092E0041092DF041092DE041092DD043E
:102090001092DC0490E080E008958091DE0490913D
:1020A000DF04892B19F58091D402882351F08091A7
:1020B000E004811106C081E08093CC048093CB04BE
:1020C00008952091E0043091D40281E090E0332320
:1020D00011F090E080E030E082239323892B21F0FF
:1020E0001092CC0481E0EACF1092CB04089582E0F4
:1020F00090E0FA01918380838FEF9FEF0895CF9353
:10210000DF93EA01009711F00E940A2319821882D6
:1021100090E080E0DF91CF910895DB01009719F402
:102120008FEF8C9308952EEF2C93FC013F96EF30A8
:10213000F10508F034C08827EF55FF4E8F4F0C94FF
:102140007335CD10CB10C910C710C510C110C31006
:10215000BF10BD10BB10B810B410B010B610CF1027
:1021600080E311968C93089589E2FBCF82E2F9CF48
:1021700011961C92089583E2F4CF81E2F2CF81E1BF
:10218000F0CF87E2EECF8AE2ECCF80E1EACF84E2C3
:10219000E8CF88E2E6CF86E2E4CF81E3E2CF80E2D7
:1021A000E0CF809102059091030508959093030577
:1021B000809302050895809101050895909101058D
:1021C000892B809301050895982F909580910105A2
:1021D00089238093010508958091000508958091D9
:1021E000FE049091FF0408956115710559F0FB01FB
:1021F00030E020E070E060E02417350719F0611549
:10220000710511F0CB010895A081B181A817B9071C
:1022100009F4BF012F5F3F4F3696EECF8091040542
:1022200081111CC060D266D29093F7048093F604AB
:102230000E94161B0E94281B9093FB048093FA04B3
:102240000E94971F0E949E1F9093F9048093F804A8
:1022500081E08093040590E080E0089584EF9FEF93
:1022600008958F929F92AF92BF92CF92DF92EF929A
:10227000FF920F931F93CF93DF9300D000D000D035
:102280001F92CDB7DEB71A86198618861F821E8266
:102290001D821C821B821A8219828091040507EF1D
:1022A0001FEF882309F49CC08E010D5F1F4F9E0114
:1022B0002B5F3F4FAE01495F5F4FBE01675F7F4FAE
:1022C00090E080E00E941B218C01009721F0059690
:1022D000029708F0DBC029853A852115310509F4FC
:1022E00002C1ED80FE804B815C81B701640F751FD8
:1022F0008F8198858617970708F4F5C0E20EF31EC4
:10230000D7019C91903C09F07FC04230510508F400
:102310007BC011968C914091020550910305452B8D
:1023200009F49CC0913F08F071C02CE1290F2D30B9
:1023300008F48BC02DE2290F203108F489C0903CAD
:1023400021F48150823008F483C088E3890F8B30F8
:1023500008F481C09DE8C92E90E1D92EE7E7F0E1AD
:102360006D817E81AE014F5F5F4F89859A8519959A
:102370005C01C114D104A1F189809A808114910477
:1023800079F18B819C818815990508F487C010E04C
:1023900000E04B815C8170E060E0C7010E949D35E8
:1023A00001151105E9F449815A8169857A858D8184
:1023B0009E81680F791FC501F6011995E980FA80A1
:1023C0000D811E812F81388549855A856FEF7FEFFA
:1023D00081E090E00E94B6208C01892B09F056C064
:1023E000C8012A960FB6F894DEBF0FBECDBFDF91AD
:1023F000CF911F910F91FF90EF90DF90CF90BF9002
:10240000AF909F908F90089580E085CF30E020E0DE
:10241000220F331FF901EA50FB4F0190F081E02DAC
:10242000309709F497CF892F90E01995009709F418
:1024300091CFDC011296ED91FC9113971496CD90FB
:10244000DC90309709F08CCF1FC021E030E0E0CF66
:1024500022E030E0DDCF23E030E0DACFD12CC12C18
:10246000EFE7F0E19F3F09F07BCFE091F604F091B8
:10247000F704309721F4C90104EF1FEF0CC08FEF70
:1024800090E019950097A9F604EF1FEF89859A85CA
:10249000009709F4A5CF0E940A23A2CF0E94E5214C
:1024A0008C0189859A850E940A2370E060E0C4014E
:1024B0000E947E2198878F830E94B3209E838D8304
:1024C0006F8178856115710559F0C8010E949624C5
:1024D0009A87898706EF1FEF892B09F058CF59CFCC
:1024E00008EF1FEF56CF08EF1FEFD0CF2091040564
:1024F000222319F020E00C942D1B87EF9FEF089505
:10250000809102059091030508950E94A31F0E94E7
:10251000FD1EF5D0E6EFF4E088E0DF011D928A951C
:10252000E9F71092040590E080E008950C945B1D9B
:1025300021E040E050E0BA010C942D1B86E090E0D1
:10254000FA019183808390E080E0089547E050E0B5
:102550006EE173E049CEDF92EF92FF920F931F93EB
:10256000CF93DF938A01EC01C60FD71FE0900805D7
:10257000F0900905D9800E94CD21D816190678F06F
:1025800082E090E0F801918380838EEF9FEFDF91EE
:10259000CF911F910F91FF90EF90DF900895EF285A
:1025A00041F482E090E0F8019183808384EF9FEF13
:1025B000EECF89818093070590E00196F801918321
:1025C000808390E080E0E3CFCF93DF93EA010E9425
:1025D0000C1E882321F00E94DA210E940D1E82E049
:1025E00090E0998388838BEF9FEFDF91CF910895DF
:1025F000CF93DF93EB0186E0FB0111928A95E9F717
:102600008FEF8883D8DD8983E7DD8A83E8DD9D83CA
:102610008C83DF91CF910895CF93DF93EA010E94DD
:102620000F1E811109C082E090E09983888385EFB5
:102630009FEFDF91CF91089590E080E0B7DD81E0DA
:1026400090E09983888390E080E0F3CF0F931F930D
:10265000CF93DF93EA018C01060F171F0E940F1E14
:1026600081110BC082E090E09983888385EF9FEF12
:10267000DF91CF911F910F910895F80181818230F0
:1026800038F082E090E0998388838EEF9FEFF0CF5F
:1026900081E090E08BDD88E090E09983888390E092
:1026A00080E0E6CFCF93DF930097D1F4EB01FB01FD
:1026B000329686E0DF011D928A95E9F78FEF8883D5
:1026C00085E089831A820E94CD218B830E94CC21D0
:1026D0009D838C8381E08E838F83DF91CF910895DA
:1026E000DF91CF911ACD86EA92E19093060580930F
:1026F00005050895809105059091060508951092AD
:102700000605109205050895809108059091090528
:102710000895411105C0611571058105910561F0AC
:10272000609308057093090580930A0590930B0543
:1027300040930C0581E0089580E00895FF920F9387
:102740001F93CF93DF938A01EC01C60FD71FF98047
:102750000E94CD21F816190668F082E090E0F80199
:10276000918380838EEF9FEFDF91CF911F910F9127
:10277000FF9008956C817D818E819F814B81C9DF9F
:10278000811108C082E090E0F8019183808384EF9A
:102790009FEFEACF89818093070590E00196F801C9
:1027A0009183808390E080E0DFCFCF93DF93EA01D5
:1027B000FC01E60FF71F6481758186819781438153
:1027C000A8DF811109C082E090E09983888384EFBB
:1027D0009FEFDF91CF91089581E090E09983888306
:1027E00090E080E0F6CFE8E0F5E040815181628141
:1027F0007381480F511D611D711D40835183628398
:1028000073830895CF93C09107054C2F50E06091DA
:1028100008057091090501960E9494358C2FE3DF1D
:1028200010920705CF910895009799F480910805BB
:10283000909109052FEFFB012083892B59F02091FE
:10284000070530E02F5F3F4F2417350719F4CB0100
:10285000D9CF63CC0895009799F4809108059091A1
:1028600009052FEFFB012083892B59F020910705E3
:1028700030E02F5F3F4F2417350719F4CB01C2CF4B
:102880004CCC089523E1AC01249FC001259F900DFD
:102890001124E0911105F0911205E80FF91F238131
:1028A00034812250310981E02230310508F080E086
:1028B00008950F931F93CF93DF9300911305109109
:1028C0001405D0E0C0E080E00C171D0749F491E04A
:1028D000811190E0892FDF91CF911F910F91089581
:1028E0008111F5CFCE01CEDF2196EECFA09111055B
:1028F000B0911205109729F120911305309114051C
:1029000082179307F0F453E1589F9001599F300DBF
:102910001124A20FB31FED91FC911197309789F00C
:1029200012968C91681768F48BE0689FE00DF11D9A
:10293000112480819181892B21F081E092814917B6
:1029400008F080E008959C0143E1429FC001439F4D
:10295000900D1124E0911105F0911205E80FF91F77
:102960008385823091F481E090E0658176814091A9
:10297000D9025091DA026417750711F490E080E0F3
:10298000892B19F081E0232B09F080E00895EF9264
:10299000FF920F931F93CF93DF93EA01FC01E60FA1
:1029A000F71F02811381E480F5804F2D6E2DC80141
:1029B0009DDF81110DC082E090E0998388838EEFC6
:1029C0009FEFDF91CF911F910F91FF90EF900895AE
:1029D000C80158DF882339F082E090E0998388832A
:1029E00088EF9FEFEECF1093E0020093DF02E092BA
:1029F000E102F092E20281E090E09983888390E026
:102A000080E0DFCFCF92DF92EF92FF920F931F9380
:102A1000CF93DF937A01EC01C60FD71FC090DF027E
:102A2000D090E0020091E1021091E202412F602F6C
:102A3000C6015CDF811110C082E090E0F701918354
:102A400080838AEF9FEFDF91CF911F910F91FF90CD
:102A5000EF90DF90CF900895C60114DF882341F0F6
:102A600082E090E0F7019183808388EF9FEFEBCFC6
:102A70004C815D816E817F819A8189818F3F41F098
:102A800082E090E0F701918380838EEF9FEFDBCFB0
:102A9000E3E1EC9D9001ED9D300D1124E0911105D5
:102AA000F0911205E20FF31F0190F081E02D2BE071
:102AB000029FE00DF11D11240190F081E02D27E02F
:102AC000129FE00DF11D1124808391838B818283FD
:102AD00043835483658376831F5F1093E20281E012
:102AE00090E0F7019183808390E080E0ACCFEF929B
:102AF000FF920F931F93CF93DF937A018C01060F00
:102B0000171FC0911105D0911205209781F021E087
:102B100030E0F801828193814091130550911405B2
:102B20008417950710F030E020E0232B71F482E049
:102B300090E0F701918380838EEF9FEFDF91CF913B
:102B40001F910F91FF90EF90089543E1489F9001EE
:102B5000499F300D1124C20FD31F94DE882341F00A
:102B600082E090E0F7019183808388EF9FEFE6CFCA
:102B7000F8012481358120383105C8F6878181111B
:102B8000D6CF4181842F90E08F7E009741F082E084
:102B900090E0F7019183808386EF9FEFCFCF4F8343
:102BA0003E832D83268128871986223010F421E068
:102BB000288721E030E0F70131832083BFCF88E010
:102BC00090E0FA019183808390E080E00895FB011A
:102BD0008FEF808381E181838FEF9FEF93838283E7
:102BE00080E890E095838483168217820895FB0124
:102BF0008FEF808391E0918382839383848384E346
:102C0000858381E090E0978386830895DF92EF9239
:102C1000FF920F931F93CF93DF93EA01FC01E60F1E
:102C2000F71F8181813071F082E090E09983888381
:102C30008FEF9FEFDF91CF911F910F91FF90EF905A
:102C4000DF90089582819381D4802581E680F7808A
:102C500000911105109112050115110539F482E05A
:102C600090E0998388838CEF9FEFE4CF4091130528
:102C7000509114058417950738F082E090E099830D
:102C800088838EEF9FEFD6CF892B39F082E090E0DA
:102C90009983888386EF9FEFCDCF8D2D8D7FB1F700
:102CA0002130A1F781E0D11006C091E0E916F104CE
:102CB00031F080E004C0E2E0EE16F104D0F38823A6
:102CC00029F390E080E0DEDD882339F082E090E0B7
:102CD0009983888388EF9FEFADCFF801D38681E099
:102CE0008487F686E586108A178681E090E09983CE
:102CF000888390E080E09ECF4CE050E068E473E091
:102D000073CA8F929F92BF92CF92DF92EF92FF92FF
:102D10000F931F93CF93DF93EA01FC01E60FF71F98
:102D2000828193810481B580E0911105F0911205B3
:102D3000309791F482E090E0998388838CEF9FEF45
:102D4000DF91CF911F910F91FF90EF90DF90CF9087
:102D5000BF909F908F900895209113053091140596
:102D60008217930738F082E090E0998388838EEF92
:102D70009FEFE6CF23E1289F6001299FD00C11240B
:102D8000EC0DFD1DE080F180E114F10499F28281E7
:102D9000081748F78BE0089F80011124E00EF11E10
:102DA000F70180819181892B29F6BB20E1F2F7E0C0
:102DB000BF9E40011124C4010E94D122F7019183DA
:102DC0008083E0911105F0911205EC0DFD1D01903D
:102DD000F081E02DE00FF11F80819181009739F49F
:102DE00082E090E0998388838DEF9FEFA9CFA401C3
:102DF00070E060E00E949D35809111059091120570
:102E0000C80ED91EF60180819181080F191FF801A3
:102E1000B28281E090E09983888390E080E090CF57
:102E2000AF92BF92CF92DF92FF920F931F93CF93F7
:102E3000DF93EA01FC01E60FF71F82819381F480A2
:102E400000911105109112050115110581F482E020
:102E500090E0998388838CEF9FEFDF91CF911F9152
:102E60000F91FF90DF90CF90BF90AF900895209189
:102E70001305309114058217930738F082E090E033
:102E8000998388838EEF9FEFE8CF2FEF2F0D2C3F94
:102E9000A8F723E1289F6001299FD00C11240C0D75
:102EA0001D1DF80180819181892B89F6FBE0FF9E31
:102EB00050011124C5010E94D122F8019183808321
:102EC000E0911105F0911205EC0DFD1D80819181BD
:102ED000009739F482E090E0998388838DEF9FEF2B
:102EE000BCCFA50170E060E00E949D35E091110526
:102EF000F0911205EC0DFD1DF28281E090E09983C6
:102F0000888390E080E0A9CFCF92DF92EF92FF928A
:102F10000F931F93CF93DF93860F971FFC010281BE
:102F200013818091110590911205892B81F082E027
:102F300090E0FA01918380838CEF9FEFDF91CF9136
:102F40001F910F91FF90EF90DF90CF900895C801EF
:102F5000B0E0A0E00197A109B1098F3F9F4FA10503
:102F6000B10540F082E090E0FA01918380838EEF1A
:102F70009FEFE4CF7A0183E1809F6001819FD00CB5
:102F80001124C6010E94D122EC01009741F482E095
:102F900090E0F701918380838DEF9FEFCFCFA60163
:102FA00070E060E00E949D35D0931205C09311053A
:102FB000109314050093130590E080E02FEF3FEF8E
:102FC00041E061E070E08017910741F481E090E01A
:102FD000F7019183808390E080E0B0CF3A8B298B1A
:102FE0001B864C877E876D87188A1F86019663969D
:102FF000EACFCF92DF92EF92FF920F931F93CF937E
:10300000DF93EC01D12CC12C10E000E0F12CE12C7D
:103010006A816017110609F0CCF483E0689FB00163
:103020001124AE014F5E5F4FC7010E943623009707
:1030300021F02FEF3FEF3A8B298BDF91CF911F913A
:103040000F91FF90EF90DF90CF900895E881F98184
:10305000EC0DFD1D438154818D859E85489F900117
:10306000499F300D589F300D1124C901019601155B
:10307000110519F44F8144FD049661E070E00E944F
:103080007E21E816F90608F47C010F5F1F4F8BE0E4
:10309000C80ED11CBDCFF89420910F0530911005BA
:1030A00081E02115310509F080E0232B09F07894A7
:1030B00008952F923F924F925F926F927F928F92DC
:1030C0009F92AF92BF92CF92DF92EF92FF920F93B7
:1030D0001F93CF93DF933C01660E771EF30182812D
:1030E00093814C01B12CA12CC0911105D0911205F6
:1030F000209769F021E030E060911305709114058C
:103100008617970710F030E020E0232BD1F482E0FF
:1031100090E0FA01918380838EEF9FEFDF91CF9152
:103120001F910F91FF90EF90DF90CF90BF90AF90E5
:103130009F908F907F906F905F904F903F902F90D7
:1031400008958092E3029092E402A092E502B09288
:10315000E60263E1689F9001699F300D1124C20F60
:10316000D31FF3018181833040F082E090E0FA01C7
:103170009183808386EF9FEFD1CF2A012B813C8101
:10318000232BF1F4288139819F8191FF2EC0232BBD
:1031900009F46FC0209116059A81422F490F5527D7
:1031A000551FBA0141E050E06138710514F050E05C
:1031B00040E0452B09F45DC02A87920F90931605D5
:1031C0008150823008F481C066DF882309F4D8C0BA
:1031D000F3018181813009F48DC008F47BC0823015
:1031E00009F4C6C090E080E0ADC0232B09F441C0D3
:1031F000209115059A81E22FE90FFF27FF1F41E07B
:1032000050E0ED3FF10514F050E040E0452B89F12E
:103210002A87920F90931505D3CFA081B181A20F79
:10322000B31F11966C91060F111D0196295F3F4F38
:103230008417950794F38D859E85089F1001099F3B
:10324000300C189F300C1124C114D104D1F48F819B
:1032500084FF17C00E94CC21F5E02F0E311C21E025
:103260008215930508F420E0A701455F5F4F211107
:103270000EC082E090E0F2019183808387EF9FEFA0
:103280004DCF0E94CC212FEF221A320AE8CF88813D
:103290009981E80EF91EF70114830383FFEFCF1A1B
:1032A000DF0A7A018A818C151D0409F00CF48CCF99
:1032B000E881F981EE0DFF1D428150E030E020E011
:1032C00010E000E090E080E0B3CFF12CE12CD12CB5
:1032D000C12CE8CF81E090E09C838B83EADA8823DD
:1032E00009F480CF81E090E00E94D61080E40E9433
:1032F000E41078CF89899A89019661F083E090E0A3
:103300009C838B8382E090E00E94D61080E40E9430
:10331000DE1068CF8D819E812091D9023091DA0232
:1033200082179307D1F46091DD027091DE02AE0145
:103330004F5E5F4F8091DB029091DC020E9455242A
:103340000097E1F2789422E030E0F20131832083AB
:10335000892B99F08DEF9FEFE1CE89288A288B2861
:1033600069F6029758F6CE0144DE188A1F86E8CF28
:1033700082E090E09C838B8335CF90E080E0CECEDE
:1033800082E090E0F2019183808385EF9FEFC6CECB
:103390008F929F92AF92BF92CF92DF92EF92FF9265
:1033A0000F931F93CF93DF93EA018C01060F171F32
:1033B000F8018181833098F082E090E099838883DE
:1033C00086EF9FEFDF91CF911F910F91FF90EF90CC
:1033D000DF90CF90BF90AF909F908F900895809195
:1033E000110590911205892B61F081E090E0209108
:1033F000130530911405232B11F490E080E0892B04
:1034000039F482E090E0998388838EEF9FEFDACFE2
:1034100042DE882309F4E0C0F8018181813009F49B
:1034200096C0E8F0823099F420911305309114058C
:10343000E0911105F091120590E080E041E050E04C
:103440002817390709F0BEC034DA811117C0789403
:1034500081E090E09983888390E080E0B3CF209171
:10346000130530911405E0911105F091120590E0DB
:1034700080E041E050E02817390741F481E090E016
:103480000E94D61080E40E94E410E1CF6381748131
:10349000672B11F05483438301967396ECCFE09130
:1034A0001105F0911205E00FF11F238134812230C4
:1034B0003105D9F4218932892F3F3F4FB1F425815D
:1034C00036814091D9025091DA022417350761F50F
:1034D000AF014F5E5F4F6091DD027091DE0280911F
:1034E000DB029091DC020E945524EFEFCE1ADE0A37
:1034F000EE0AFE0A0D5E1F4F409113055091140510
:1035000070E060E0C416D506E606F70644F50097BD
:1035100031F27894892B09F49BCF82E090E0998373
:1035200088838DEF9FEF4ECFC114D104E104F104E5
:10353000E1F622303105C8F6CF015BDDE0911105DF
:10354000F0911205E00FF11F108A1786CECF10E020
:1035500000E090E080E0C12CD12C7601CDCF009727
:10356000C1F610E000E0812C912C540183E0E82E9C
:10357000F12C1AC0E0911105F0911205E00FF11F36
:1035800083819481029749F4F482E38282E090E09F
:103590000E94D61080E40E94DE10FFEF8F1A9F0A6F
:1035A000AF0ABF0A0D5E1F4F80911305909114055D
:1035B000B0E0A0E088169906AA06BB06DCF290E00F
:1035C00080E0A7CF638174816230710511F4548368
:1035D00043830196739634CF82E090E09983888389
:1035E00085EF9FEFEFCE0097B9F48FEFFB0180835B
:1035F0002091E3023091E40243E1429FC001439FE6
:10360000900D1124E0911105F0911205E80FF91FBA
:103610008285FB01818308950C948D1088E090E0F1
:10362000FA019183808390E080E008951092100564
:1036300010920F05E1E1F5E086E0DF011D928A9529
:10364000E9F78CE796E190930E0580930D050895B8
:1036500080910D0590910E0508952F923F924F9203
:103660005F926F927F928F929F92AF92BF92CF9212
:10367000DF92EF92FF920F931F93CF93DF93CDB71B
:10368000DEB760970FB6F894DEBF0FBECDBFF894DB
:10369000E0910F05F09110053196F0931005E0933D
:1036A0000F057894A0911105B0911205BA83A983F2
:1036B000109709F4FAC1E0911305F0911405EF2B6E
:1036C00009F4F3C128874B875C876D877E879A87CB
:1036D0008987B88BAF87312C212CF12C512C412CB0
:1036E00080911305909114052816390610F4FF20D7
:1036F00029F1F89480910F0590911005019790930E
:10370000100580930F057894C20160960FB6F89467
:10371000DEBF0FBECDBFDF91CF911F910F91FF9004
:10372000EF90DF90CF90BF90AF909F908F907F9061
:103730006F905F904F903F902F900895B10190E06F
:1037400080E088D4682EEF85F889878181FD3DC0AF
:10375000838194810397C9F5258136813C832B832E
:1037600089859A852817390781F5C101ECD8782E0B
:103770008823A9F1AF85B8891F968D919C915097A8
:10378000019621E01D964D915C918417950709F0F3
:1037900020E02F83B12CA12CEF85F88982818A1536
:1037A0001B0419F014F0FF20E9F0F885FF2309F459
:1037B0006CC1AF85B88950961C921E921F976620E7
:1037C00021F0B10190E080E047D4FFEF2F1A3F0ACB
:1037D0002F8538892D5E3F4F388B2F8781CFB1E001
:1037E000BF83D8CFC0D49E838D83E885EE23E9F0D4
:1037F000772009F43CC1AF85B8891F968D919C91C3
:10380000892B79F0BBE0BA9DC001BB9D900D1124BE
:10381000AF85B889ED91FC91E80FF91F85819681FC
:10382000F9D6BFEFAB1ABB0AB7CF81E0772039F0EA
:10383000EF85F88927853089232B09F080E0F82E61
:10384000E12CA114B10439F4AF85B8891796EC9036
:10385000E4FAEE24E0F8BBE0BA9D6001BB9DD00C19
:103860001124882309F424C1AF85B889ED91FC9116
:103870001197EC0DFD1D438154811D962D913C91B6
:10388000429FC001439F900D529F900D1124E11063
:103890005DC001969087878361E070E087819085A5
:1038A0002DD5EF85F88921893289008111810C0D90
:1038B0001D1D2F3F320709F44BC0BC01C9010E94F6
:1038C0009624D80116969C938E931597AF85B88948
:1038D000ED91FC911197EC0DFD1D058116810115EF
:1038E000110509F4CDC0ED81FE810E0F1F1F1A9640
:1038F0008C918A0DD8018C93E1102FC00F5F1F4F60
:10390000AF85B889ED91FC91EC0DFD1D1287018703
:10391000AF85B889ED91FC91EC0DFD1D85819681F7
:10392000892B09F4A4C08091D9029091DA022B81ED
:103930003C812817390709F465C0772011F001850B
:103940001285912C812C1A8219824AC00596A2CF29
:1039500028D6F80196838583B9CF8B859C85AD8564
:10396000BE85F80181839283A383B4830B5F1F4FCD
:10397000C7CFE080F180E80CF91CD70113966D9158
:103980007C9114978C918F3F09F473C0E1E0F0E0D3
:1039900002C0EE0FFF1F8A95E2F7CF01092E000C3F
:1039A000AA0BBB0BFB01408151816281738184238F
:1039B0009523A623B72321E0892B8A2B8B2B09F48F
:1039C00020E0D8012C93D70111968C91080F111D7E
:1039D000E981FA813196FA83E983F7E08F0E911C31
:1039E000AF85B889ED91FC91EC0DFD1D8281298197
:1039F0003A818217130611F00CF0BBCF772011F03B
:103A0000128701873F81332391F1AF85B889ED910A
:103A1000FC91EC0DFD1D61E070E0878190856ED416
:103A2000AF85B889ED91FC91EC0DFD1DE780F08428
:103A300045815681E1E0F0E0662011F0F0E0E0E041
:103A40000D811E819C01B101882799278E1B9F0B38
:103A50008DD32C01892B59F0EF85F88980819181D4
:103A6000C80ED91ED60115968D919C91D3D5F12CF7
:103A7000D8CEF701418150E0C8010E949435A3CF10
:103A800086EF482E55245A94CCCEEF85F889878549
:103A900090890196908B87872585368582179307B5
:103AA00009F08DCE108A17868ACE512C412C21CE5A
:103AB00010E000E02DCF2F923F924F925F926F92D5
:103AC0007F928F929F92AF92BF92CF92DF92EF92AE
:103AD000FF920F931F93CF93DF93809111059091E5
:103AE000120510E000E0892BA9F0D5DA0AEF1FEFEC
:103AF000882381F02090130530901405C0911105A2
:103B0000D0911205D12CC12C10E000E02C143D0402
:103B1000A9F47894C801DF91CF911F910F91FF9084
:103B2000EF90DF90CF90BF90AF909F908F907F905D
:103B30006F905F904F903F902F900895C6010E9424
:103B4000A314882309F18B819C810397E9F48F8565
:103B50009889892BC9F0B60190E080E07BD221E002
:103B600030E0882311F030E020E044245524421A4C
:103B7000530AB12CA12C912C812C8A81881519040F
:103B800009F038F4188A1F864FEFC41AD40A6396D6
:103B9000BDCFE881F981EA0DFB1D85819681892BD6
:103BA000A1F161E070E087819085A8D33C01DBD270
:103BB0008C01E881F981EA0DFB1D818592852581C3
:103BC0003681200F311FAC01421B530B9A014781F4
:103BD0005085421B530B70E060E00E949D35E881E8
:103BE000F981EA0DFB1DE780F08445815681930140
:103BF000B601C201BBD28C01892B39F0E881F98171
:103C0000EA0DFB1D8581968105D55FEF851A950A22
:103C10008BE0A80EB11CB1CF3ECA789408952F92C4
:103C20003F924F925F926F927F929F92AF92BF921C
:103C3000CF92DF92EF92FF920F931F93CF93DF9378
:103C400000D000D0CDB7DEB700911105109112055C
:103C5000992493940115110509F43EC0A090130511
:103C6000B090140518DA982E8823B1F1109212053D
:103C7000109211051092140510921305109215055B
:103C8000109216058FEF9FEFDC018093E302909373
:103C9000E402A093E502B093E60278947FD31E83FA
:103CA0000D83C12CD12C7601C501B0E0A0E0898341
:103CB0009A83AB83BC8322242A94322C89819A81F3
:103CC000AB81BC81C816D906EA06FB06F4F0C80130
:103CD000A1D480E40E94E410892D26960FB6F894B2
:103CE000DEBF0FBECDBFDF91CF911F910F91FF902F
:103CF000EF90DF90CF90BF90AF909F907F906F90AC
:103D00005F904F903F902F900895AD81BE811596A2
:103D10008D919C9116972091D9023091DA028217E9
:103D20009307D1F451968D919C91EED5ED81FE8152
:103D300080819181B12CA12C412C512C3201892BF5
:103D400089F5BFEFCB1ADB0AEB0AFB0AED81FE8196
:103D50007396FE83ED83B2CFC114D104E104F10464
:103D600029F7029718F7ED81FE81818992898F3FAB
:103D7000980709F029D5AD81BE8152963C922E92CA
:103D80005197D4CF8A0D9B1DDC018D919C9100979A
:103D900009F040D4BFEF4B1A5B0A6B0A7B0AEBE0D9
:103DA000AE0EB11CAD81BE818D919C911197129682
:103DB0004C9150E070E060E04416550666067706C8
:103DC0000CF328D4BECFCF93DF93EA0128DF811113
:103DD00009C082E090E09983888385EF9FEFDF91AF
:103DE000CF91089581E090E00E94D61081E090E0AC
:103DF0009983888390E080E0F2CF11DF10920E0566
:103E000010920D05089542E050E060E973E00C94D3
:103E1000F410FF920F931F93CF93DF938A01EC016D
:103E2000C60FD71FF980B9D20897F816190671F096
:103E300068F082E090E0F801918380838EEF9FEF3D
:103E4000DF91CF911F910F91FF9008956C817D813B
:103E50008E819F814B810E948913811108C082E06D
:103E600090E0F8019183808384EF9FEFE9CFF980A0
:103E70000E9484134F2D50E0BE01685F7F4F0E9467
:103E8000943589810E94F31381E090E0F8019183D9
:103E9000808390E080E0D4CFDF92EF92FF920F9387
:103EA0001F93CF93DF938A01EC01C60FD71F0E94A7
:103EB00084137C01D98071D2DD2059F0029721E072
:103EC00030E0D816190619F010F030E020E0232B6E
:103ED00079F482E090E0F801918380838EEF9FEF88
:103EE000DF91CF911F910F91FF90EF90DF90089598
:103EF000EF2841F482E090E0F8019183808384EF21
:103F00009FEFEECFF9800E9484134F2D50E0BE0149
:103F10006E5F7F4F0E94943589810E94F31381E088
:103F200090E0F8019183808390E080E0D9CF83E036
:103F30009FE19093180580931705089580911705C8
:103F40009091180508950895FC01118210829383C1
:103F500082830895DB011D921C92DC011296ED9183
:103F6000FC9113977183608313967C936E931297E1
:103F70000895FC0180819181DB018D939C93A08148
:103F8000B181109741F08D919C9191838083892B11
:103F900011F4F383E2830895FC0180819181DB01B8
:103FA0008D939C93892B11F4738362837183608357
:103FB0000895FC0111821082938382830895CF9328
:103FC000DF931F921F92CDB7DEB71A821982F89441
:103FD000BE016F5F7F4F8EE195E0CBDF89819A81D3
:103FE000009709F017D389819A81892B89F7BE013F
:103FF0006F5F7F4F82E295E0BCDF89819A810097F5
:1040000009F008D389819A81892B89F778940F90D8
:104010000F90DF91CF910895CF93DF931F921F925E
:10402000CDB7DEB71A821982F894BE016F5F7F4F59
:104030008AE195E09EDF89819A81009709F0EAD2B2
:1040400089819A81892B89F778940F900F90DF915D
:10405000CF91089581E0089590E080E00895EF9277
:10406000FF920F931F93CF93DF931F921F92CDB7B1
:10407000DEB71A8219828091190507EF1FEF882396
:10408000A1F1F894BE016F5F7F4F82E295E071DF8E
:10409000789489819A81EE24E394F12C892B51F450
:1040A000F894BE016F5F7F4F8EE195E062DF7894F8
:1040B000F12CE12C89819A810EEF1FEF0097A9F076
:1040C000FC014281538164E070E076D68C01892B3B
:1040D00061F0F89469817A81C701880F991F880F70
:1040E000991F825E9A4F58DF7894C8010F900F9005
:1040F000DF91CF911F910F91FF90EF9008950F9353
:104100001F93CF93DF9300D01F92CDB7DEB71C82F1
:104110001B821A8219828091190507EF1FEF8823ED
:10412000C1F0AE014D5F5F4F64E070E0CE010196DB
:10413000B6D68C01892B69F4E981FA818B819C8147
:1041400093838283F89469817A818AE195E002DF22
:104150007894C8010F900F900F900F90DF91CF913E
:104160001F910F910895BBD7049608958F929F9247
:10417000AF92BF92CF92DF92EF92FF920F931F9375
:10418000CF93DF931F921F92CDB7DEB71A821982A9
:10419000BC016F5F7F4F6330710598F0AA24AA9429
:1041A000BA2CC5010F900F90DF91CF911F910F9105
:1041B000FF90EF90DF90CF90BF90AF909F908F9047
:1041C00008954115510551F3480159018A016C01C7
:1041D000CADF8815990511F7E114F104F9F28E0D83
:1041E0009F1DA816B906D0F2809119058823F1F019
:1041F000F894B501645071099701AE014F5F5F4FAC
:10420000C8010496E1D65C01892B71F489819A81F9
:10421000F80193838283C601880F991F880F991F25
:10422000B801825E9A4F96DE7894BBCF87EFA82EB6
:10423000BB24BA94B6CFAF92BF92CF92DF92EF92E7
:10424000FF920F931F93CF93DF931F921F92CDB7CF
:10425000DEB71A821982892B09F047C061157105F2
:1042600009F443C04115510509F43FC0211531053A
:1042700009F43BC001151105C1F18091190588238E
:10428000B9F179016A015B01F894BE016F5F7F4F5C
:104290008AE195E06EDE789489819A81009759F1E0
:1042A000DC0112966D917C91A8010496A6D68C0132
:1042B000E981FA81D501ED93FC9382819381049683
:1042C000F601918380834FDFD7018D939C93C801C2
:1042D0000F900F90DF91CF911F910F91FF90EF9072
:1042E000DF90CF90BF90AF9008950FEF1FEFEFCF0B
:1042F00007EF1FEFECCF0EEF1FEFE9CFCF93DF9368
:10430000EC01672B71F4F4D68C179D0760F0E7D6AB
:104310002496C80FD91FE6D68C0F9D1FDF91CF9131
:104320000895E3D6F1CF90E080E0F8CF0F931F938C
:10433000CF93DF932091190521112BC08B01EC0144
:104340008EE195E001DE82E295E0FEDD8AE195E016
:10435000FBDD97D00097C1F4CBD670E060E0CEDFF4
:1043600047EE52E062E070E081D1009769F48091FD
:10437000E7029091E802CED6B801CE0103D50097AE
:1043800019F421E020931905DF91CF911F910F912E
:10439000089584EF9FEFF8CFA8C6AAC6CF93DF9306
:1043A000AAD6EC01892B11F40ADE36DECE01DF91AC
:1043B000CF910895CF93DF939ED6EC01892B09F41A
:1043C000FEDDCE01DF91CF9108958091E7029091BB
:1043D000E8020895CF93DF9380911905D0E0C0E003
:1043E0008823D1F09CD6EC01892BB1F4E8DD14DEF2
:1043F0008091E7029091E802E7D1E8D2EC01892BA5
:1044000059F48EE195E0D5DD82E295E0D2DD8AE1D6
:1044100095E0CFDD10921905CE01DF91CF9108957F
:10442000EF92FF920F931F93CF93DF93EC017A01EA
:104430008B010F5F1F4F0E9DA0010F9D500D1E9D04
:10444000500D112470E060E00E949D3590E080E006
:10445000F0E0E0E02FEFE816F90639F4DF91CF91B4
:104460001F910F91FF90EF9008951A82198228836F
:10447000309711F0D283C1830196FE01C00FD11F86
:10448000EACFCF92DF92EF92FF920F931F93CF93D9
:10449000DF9303E416E00C7F43E050E069EE72E046
:1044A0008FEE92E01CD489EEE82E82E0F82E9FEE8B
:1044B000C92E92E0D92ECAEBD6E0D7014D915D917D
:1044C0007D01F601619171916F01198308835D830C
:1044D0004C835B834A837F836E839B012F5F3F4FB7
:1044E000249FC001259F900D349F900D1124998722
:1044F00088870115110511F0C80192DF888599851B
:10450000080F191F2A96FFEEEF16F2E0FF06A9F634
:10451000E8E2F5E088E191E0DF019C011D92215085
:104520003040E1F710922705109226051092D90627
:104530001092D8061092DD061092DC061092DB066F
:104540001092DA061092DF061092DE061092E10653
:104550001092E0061092E3061092E2061092E7062F
:104560001092E6061092E5061092E4061092E90613
:104570001092E8061092EB061092EA061092B70627
:104580001092B6061092B9061092B80690E080E03C
:10459000DF91CF911F910F91FF90EF90DF90CF901F
:1045A00008950097F1F0F894AFEEB2E0EAEBF6E090
:1045B00030E020E04D915D9148175907A8F0428105
:1045C00053814115510581F08AE0829FF001839F5C
:1045D000F00D1124E654F94F80819181009759F430
:1045E000789490E080E008952F5F3F4F3A96233013
:1045F000310501F7F5CFDC0111966D917C91718346
:1046000060834150510953834283FC012193CF01C0
:1046100078940895009749F1DC018E91853041F43A
:10462000E091B806F091B9063097F9F0CD011994F0
:104630008530D8F4282F30E0F8948FEF8C938AE0FF
:10464000829FF001839FF00D1124E654F94F808181
:10465000918112969C938E931197B183A08382814E
:10466000938101969383828378940895CF92DF9209
:10467000EF92FF920F931F93CF93DF939C018BE2F6
:1046800095E08C7F4115510509F49BC0211531053A
:1046900009F497C06115710509F493C07A01AB0163
:1046A000B9016D5F7F4F6C7F9B012F5F3F4F249F50
:1046B0008001259F100D349F100D1124F894209136
:1046C000D8063091D906232B59F42091E006309179
:1046D000E1062115310569F12017310708F058C0AE
:1046E0002091E2063091E306232B91F42091E0061D
:1046F0003091E106820F931F2091EA063091EB067C
:104700002115310509F441C02017310708F056C0C2
:104710007894CFEFDFEF86EF9FEFF701D183C0836F
:10472000DF91CF911F910F91FF90EF90DF90CF908D
:104730000895C3E0D0E0C0902605D090270525E17C
:1047400031E02C193D092017310710F32AE02C9F86
:10475000F0012D9FF00D1124E654F94F91838083D1
:10476000558344835383428377836683118700870D
:10477000009709F055DE0C0D1D1D109327050093C1
:104780002605789490E080E0C8CFC4E0D0E0D3CF95
:10479000C3E0D0E02AE02C9FF0012D9FF00D112402
:1047A000E654F94F91838083558344835383428336
:1047B00077836683009729F333DEE3CFC4E0D0E04C
:1047C000E9CF8FEF9FEFACCF9C010397029708F0E2
:1047D00069C0F89484E09AE0482F50E02417350728
:1047E0000CF44DC091E08AE0829FF001839FF00DB0
:1047F0001124E654F94F118210821582148213821B
:104800001282178216829923B1F18091D806909175
:10481000D906892BA9F42091E0063091E1062115F3
:10482000310571F08091260590912705821B930B2D
:1048300090932705809326051092E1061092E006DA
:104840008091E2069091E306892BA9F42091EA0673
:104850003091EB062115310571F08091260590917C
:104860002705821B930B90932705809326051092B2
:10487000EB061092EA06789490E080E00895949F09
:10488000F001959FF00D1124E654F94F40815181BC
:10489000452B31F440855185452B11F481509CCF37
:1048A00090E0A1CF8FEF9FEF08954115510549F199
:1048B000009739F16115710521F1F8942091B60640
:1048C0003091B706232BB9F42091B8063091B90680
:1048D000232B89F49093B7068093B6067093B9069C
:1048E0006093B806789425E030E090E080E0FA012B
:1048F00031832083089578942FEF3FEF86EF9FEF69
:10490000F6CF8FEF9FEF0895059769F4F894109212
:10491000B7061092B6061092B9061092B8067894AF
:1049200090E080E008958FEF9FEF08956115710585
:1049300019F4F0E0E0E011C08530910581F4E091D8
:10494000B606F091B7063097A1F3CB010196199501
:10495000009779F3FC0185E08193CF0108959C01D4
:10496000235031092230310520F72AE0289FD00159
:10497000299FB00D1124A654B94F2D913C91119748
:10498000232BB9F216962D913C91179726173707CE
:1049900080F2F89412962D913C91139721153105D0
:1049A00029F0ED91FC911197309711F47894C1CFD3
:1049B0004181528111965C934E9321503109139697
:1049C0003C932E93129781937894C7CFE0E4F6E05E
:1049D00086E7DF011D928A95E9F7E8E2F5E088E1D4
:1049E00091E0DF019C011D9221503040E1F71092CF
:1049F000270510922605EAEBF6E082E3DF011D921F
:104A00008A95E9F7E6EBF6E084E0DF011D928A95EE
:104A1000E9F790E080E00895CF93DF93C091F5022D
:104A2000D091F602CF3FDC0759F435D49093F602CB
:104A30008093F50297FF09C0D093F602C093F50268
:104A400084EF9FEFDF91CF91089590E080E0FACF5F
:104A50008230910528F48093EC0690E080E0089580
:104A60008FEF9FEF08954F925F926F927F92AF9278
:104A7000BF92CF92DF92EF92FF920F931F93CF934B
:104A8000DF931F921F92CDB7DEB71A82198200976B
:104A900009F479C06115710509F475C02091F5021A
:104AA0003091F60207EF1FEF2F3F3F4F09F445C04B
:104AB0006B015C01412C512C3201F12CE12C10E0F6
:104AC00000E09E012F5F3F4FA6014E195F09B5011F
:104AD0006E0D7F1D8091F5029091F60240D4892BD6
:104AE00009F04BC089819A81009741F4E114F104E7
:104AF00029F42091EC06222309F442C0E80EF91EA5
:104B0000EC14FD04D0F480E8481684E858068EE1E1
:104B10006806710420F560E070E0CB010E94662F0A
:104B20002AE0420E511C611C711C0A3F4FEF140712
:104B300021F0043F8FEF1807A1F4C8010F900F90E8
:104B4000DF91CF911F910F91FF90EF90DF90CF9069
:104B5000BF90AF907F906F905F904F90089501EF5E
:104B60001FEF81E090E0013F2FEF120711F090E07E
:104B700080E0892B09F4A5CFE0CF04EF1FEFDDCF54
:104B80000AEF1FEFDACF0FEF1FEFD7CF4F925F92F1
:104B90006F927F92AF92BF92CF92DF92EF92FF928D
:104BA0000F931F93CF93DF931F921F92CDB7DEB762
:104BB0001A821982009709F479C06115710509F408
:104BC00075C02091F5023091F60207EF1FEF2F3FDD
:104BD0003F4F09F445C06B015C01412C512C32015F
:104BE000F12CE12C10E000E09E012F5F3F4FA60169
:104BF0004E195F09B5016E0D7F1D8091F5029091F0
:104C0000F60260D3892B09F04BC089819A81009705
:104C100041F4E114F10429F42091EC06222309F473
:104C200042C0E80EF91EEC14FD04D0F480E84816EA
:104C300086E9580688E96806710420F560E070E0AE
:104C4000CB010E94662F2AE0420E511C611C711C90
:104C50000E3F4FEF140721F0043F8FEF1807A1F428
:104C6000C8010F900F90DF91CF911F910F91FF908E
:104C7000EF90DF90CF90BF90AF907F906F905F905C
:104C80004F90089502EF1FEF81E090E0023F2FEF79
:104C9000120711F090E080E0892B09F4A5CFE0CF56
:104CA00004EF1FEFDDCF0EEF1FEFDACF0FEF1FEF97
:104CB000D7CF8091F5029091F6028F3F980749F087
:104CC000E2D2892B49F48FEF9FEF9093F602809305
:104CD000F50290E080E0089584EF9FEF0895CF9271
:104CE000DF92EF92FF920F931F93CF93DF9321E018
:104CF0004115510509F020E04150510921112CC006
:104D0000DC01FB01D12CC12C21E022C03FEFC31AF2
:104D1000D30A7D010D911D91E701EA80FB80E01629
:104D2000F106A8F420813181E280F380F182E082F3
:104D300033832283ED90FC9011979D01225031091D
:104D4000E901F982E88211961C930E9320E03296D5
:104D5000C416D506D8F2D2CFDF91CF911F910F9113
:104D6000FF90EF90DF90CF900895FC01680F791FBE
:104D700090E080E0E617F70709F408952191820F8B
:104D8000911DF8CF2091ED06211113C045DE00974B
:104D900091F41092F3061092F2061092F10610921E
:104DA000F0061092EF061092EE0621E02093ED0639
:104DB000089584EF9FEF0895AF92BF92CF92DF9254
:104DC000EF92FF920F931F93CF93DF93009709F415
:104DD00060C04630510508F45CC02091ED06C7EF75
:104DE000DFEF222309F449C08C01060F171FF801D9
:104DF000C080D180C114D10409F44EC096012A5F4D
:104E00003F4F4217530708F447C07C018091F206D8
:104E10009091F30693838283B6016C5F7F4F5801B4
:104E2000A60EB71EC801A1DFF5019183808364E05F
:104E300070E0C80118DEEC01892BF9F481E090E004
:104E400007DEB601C80104960EDEEC01892B91F451
:104E500062E070E0C50107DEEC01892B59F4C7015F
:104E6000D9DB8091F2069091F30601969093F306B8
:104E70008093F20690E080E0EBDDCE01DF91CF91F0
:104E80001F910F91FF90EF90DF90CF90BF90AF9068
:104E90000895CFEFDFEFF1CFC9EFDFEFEECF6F92E5
:104EA0007F928F929F92AF92BF92CF92DF92EF92BA
:104EB000FF920F931F93CF93DF9300D01F92CDB734
:104EC000DEB7009709F47AC04115510509F476C0A0
:104ED0002091ED0607EF1FEF222309F44DC03A01A0
:104EE0007B015C0164E070E0CE0101964FDE8C0135
:104EF000892B09F041C009811A810115110509F4B6
:104F00005AC0480186E0880E911CB701680D791DD2
:104F10008091F7029091F80209DD6C01009709F485
:104F200050C0A70170E060E00E949D3589819A81A0
:104F3000AB81BC81EC0CFD1CF70181939193A19393
:104F4000B1937F0181E090E083DDB801C7011EDEEF
:104F5000892B31F562E070E0C701800F911F16DEEA
:104F60008C01892BE9F490E080E072DDF501D182BB
:104F7000C082F30191828082C8010F900F900F9040
:104F80000F90DF91CF911F910F91FF90EF90DF90E5
:104F9000CF90BF90AF909F908F907F906F9008952B
:104FA00090E080E055DDF50111821082F30111825D
:104FB0001082C6012FDB09EF1FEFDECF0FEF1FEFCF
:104FC000DBCF06EF1FEFD8CF0097A1F041155105B9
:104FD00089F02115310571F0F90136966E177F07BA
:104FE00048F0DC012D933C93DA01ED93FC9390E0C3
:104FF00080E008958FEF9FEF0895AF92BF92CF9218
:10500000DF92EF92FF920F931F93CF93DF9300975E
:1050100009F45FC04115510509F45BC065307105A5
:1050200008F457C02091ED06C7EFDFEF222391F17E
:10503000DC01CD90DC9011971296ED91FC919601D8
:105040002A5F3F4FC9EFDFEF2617370719F5C091E9
:10505000EE06D091EF06209749F521E030E030933D
:10506000EF062093EE067A018C01F093F106E093AF
:10507000F0065601B4E0AB0EB11CB50176DE0A0DA8
:105080001B1DF801208131818217930729F5D70173
:10509000CD92DC92CE01DF91CF911F910F91FF90C5
:1050A000EF90DF90CF90BF90AF9008952091F006E1
:1050B0003091F1062F5F3F4FCCEFDFEFE217F307A0
:1050C00090F2CBEFDFEF2E173F0768F2D0E0C0E0A1
:1050D000CACFCFEFDFEFDECFC3EFDFEFDBCF84E070
:1050E00090E0089582E090E008958CEF9FEF08959E
:1050F00080E290E008951092F3061092F20610926A
:10510000F1061092F0061092EF061092EE0690E073
:1051100080E008959093F8028093F70208958091BB
:10512000ED06882391F0C5DD009789F41092F3060F
:105130001092F2061092F1061092F0061092EF060D
:105140001092EE061092ED06089590E080E008952A
:10515000009749F06115710531F0FC011182108250
:10516000FB01118210820895F3CF26E030E040E881
:1051700055E260E070E090E080E008D061E08DE012
:105180000E94383160E08DE00C94743181309105DB
:1051900071F01CF4892B39F008958230910551F09B
:1051A000039759F0089581E097E00C9493328EE9CB
:1051B00097E0FBCF8BE398E0F8CF88ED98E0F5CF50
:1051C0001F920F920FB60F9211240BB60F922F93CE
:1051D0003F934F935F936F937F938F939F93AF937F
:1051E000BF93EF93FF9383E89FEF90932501809304
:1051F00024018091F6069091F706019721F461E071
:105200008DE00E947431BFD0FF91EF91BF91AF91BB
:105210009F918F917F916F915F914F913F912F91CE
:105220000F900BBE0F900FBE0F901F90189583E844
:105230009FEF9093250180932401A3E7B0E08C9128
:105240008E7F8C93E0E2F1E080818C7F8083E1E2CD
:10525000F1E08081877E808380818460808380818B
:105260008C7F80838C9181608C930895E3E7F0E0DC
:10527000808190819E7F90838170089581E0089560
:105280001092F406089568EE73E080E090E01ED678
:1052900090E080E0089526E030E040E052EC61E0EC
:1052A00070E090E080E072DF81E097E00E94C93119
:1052B000892B29F081E097E00E94E331F5CF90E05F
:1052C00080E00895CF92DF92EF92FF920F931F93A9
:1052D000CF93DF936B017A01E9011982188281E093
:1052E00097E00E94C931892B79F18601CC24C394BF
:1052F00082E0D82E8091F406811111C081E097E000
:105300000E94E3310297B1F7C092F406F801D192FE
:105310008F0188819981019699838883EBCF888159
:1053200099818E159F0580F481E097E00E94E3311A
:105330008F3F9807A1F3F80181938F0188819981AC
:10534000019699838883EBCF90E080E0DF91CF9145
:105350001F910F91FF90EF90DF90CF9008950F93E2
:105360001F93CF93DF93EA01890181E097E00E94C8
:105370002335F801D183C08390E080E0DF91CF91A5
:105380001F910F9108958091F50691E0980F9093E9
:10539000F506882349F021E030E03093F7062093AA
:1053A000F6068093F506089578940E948704F89491
:1053B0008091F5068150F5CF0F931F93CF93DF9324
:1053C0001092D2091092D109B7D5CFDEC0911C033B
:1053D000D0911D031982188268E873E180E090E0A3
:1053E0000E947C0470E060E090E080E00E94FB029C
:1053F000009709F042C00E944208F8947894BE01D8
:105400006C557F4F8A819B810E94FE02892B71F42B
:105410006FEF7FEFCB010E948F030E9476048823F9
:1054200029F081E0FE01E655FF4F8083F894FFDE0E
:105430000E947904882311F080E00BC00E9476045A
:105440008111FACF81E0FE01E655FF4F9081911165
:10545000F3CF8093D10978940E94D1108C01789475
:10546000C655DF4F8091D10981110CC00E94D1092E
:105470000E945B04F89490E080E0DF91CF911F914F
:105480000F9108950E9459040E9479048823D9F04D
:1054900081E08093D2099091D20981E0911180E05E
:1054A0008093D1098091D2098111E0DE013011058C
:1054B00029F40E94D110892B09F4E2DE0E94D11058
:1054C0008C01DCDECFCF0E9476048111E1CF81E038
:1054D00098819111DECF80E0DCCF5058BB27AA27FE
:1054E0000ED0FAC1EBD130F0F0D120F031F49F3F73
:1054F00011F41EF4E0C10EF4E095E7FBADC1E92F15
:10550000FCD180F3BA17620773078407950718F078
:1055100071F49EF52BC20EF4E0950B2EBA2FA02D40
:105520000B01B90190010C01CA01A0011124FF2750
:10553000591B99F0593F50F4503E68F11A16F0404B
:10554000A22F232F342F4427585FF3CF469537954A
:105550002795A795F0405395C9F77EF41F16BA0B0F
:10556000620B730B840BBAF09150A1F0FF0FBB1FBD
:10557000661F771F881FC2F70EC0BA0F621F731F06
:10558000841F48F4879577956795B795F7959E3F63
:1055900008F0B3CF9395880F08F09927EE0F9795F1
:1055A0008795089535D108F481E008950CD094C111
:1055B0008CD140F083D130F021F45F3F19F04CC121
:1055C0005111D5C178C199D198F39923C9F35523C5
:1055D000B1F3951B550BBB27AA27621773078407E6
:1055E00038F09F5F5F4F220F331F441FAA1FA9F39C
:1055F00033D00E2E3AF0E0E830D091505040E6958E
:10560000001CCAF729D0FE2F27D0660F771F881FEE
:10561000BB1F261737074807AB07B0E809F0BB0BDD
:10562000802DBF01FF2793585F4F2AF09E3F510501
:1056300068F012C19CC15F3FECF3983EDCF38695A5
:1056400077956795B795F7959F5FC9F7880F911D77
:105650009695879597F90895E1E0660F771F881F63
:10566000BB1F621773078407BA0720F0621B730B16
:10567000840BBA0BEE1F88F7E095089546D188F0A9
:105680009F5790F0B92F9927B751A0F0D1F0660F2E
:10569000771F881F991F1AF0BA95C9F712C0B13049
:1056A00081F064D1B1E0089561C1672F782F882718
:1056B000B85F39F0B93FCCF3869577956795B39588
:1056C000D9F73EF490958095709561957F4F8F4FF7
:1056D0009F4F0895E89409C097FB3EF490958095FC
:1056E000709561957F4F8F4F9F4F9923A9F0F92FA8
:1056F00096E9BB279395F695879577956795B79526
:10570000F111F8CFFAF4BB0F11F460FF1BC06F5F0B
:105710007F4F8F4F9F4F16C0882311F096E911C01D
:10572000772321F09EE8872F762F05C0662371F03E
:1057300096E8862F70E060E02AF09A95660F771F52
:10574000881FDAF7880F9695879597F90895F7D00F
:1057500080F09F3740F491110EF009C160E070E0D5
:1057600080E89FEB089526F41B16611D711D811DB5
:1057700079C093C0A3D018F011F0A7D038F49BC023
:10578000F6C0E92FBAD0B0F35523C9F3E7FB62178F
:10579000730784079507A8F199F3E92FFF2788235A
:1057A0002AF03197660F771F881FDAF7952F552754
:1057B000442332F091505040220F331F441FD2F740
:1057C000BB27E91BF50B621B730B840BB109C1F2FC
:1057D00022F4620F731F841FB11D31972AF0660FE8
:1057E000771F881FBB1FEFCF915050405AF041F0F8
:1057F000882332F0660F771F881F91505040C1F701
:1058000093954BC08695779567959F5FD9F7F8CFAD
:10581000990F0008550FAA0BE0E8FEEF16161706C1
:10582000E807F907C0F012161306E407F50798F029
:10583000621B730B840B950B39F40A2661F0232B42
:10584000242B252B21F408950A2609F4A140A695BE
:105850008FEF811D811D089597F99F6780E870E0A3
:1058600060E00895882371F4772321F09850872B06
:10587000762F07C0662311F499270DC09051862B0F
:1058800070E060E02AF09A95660F771F881FDAF7BC
:10589000880F9695879597F908959F3F31F091501D
:1058A00020F4879577956795B795880F911D969504
:1058B000879597F908959FEF80EC089500240A9446
:1058C0001616170618060906089500240A941216DB
:1058D0001306140605060895092E0394000C11F40E
:1058E000882352F0BB0F40F4BF2B11F460FF04C0BB
:1058F0006F5F7F4F8F4F9F4F089557FD9058440F14
:10590000551F59F05F3F71F04795880F97FB991F1E
:1059100061F09F3F79F087950895121613061406DB
:10592000551FF2CF4695F1DF08C016161706180668
:10593000991FF1CF86957105610508940895E5DFFB
:10594000A0F0BEE7B91788F4BB279F3860F416169D
:10595000B11D672F782F8827985FF7CF86957795A9
:105960006795B11D93959639C8F30895E894BB27C0
:1059700066277727CB0197F908954ADF08F48FEF60
:1059800008950BD0A9CF9ADF28F09FDF18F0952358
:1059900009F062CF90CF1124EACFAFDFA0F3959F3B
:1059A000D1F3950F50E0551F629FF001729FBB2706
:1059B000F00DB11D639FAA27F00DB11DAA1F649FB2
:1059C0006627B00DA11D661F829F2227B00DA11D65
:1059D000621F739FB00DA11D621F839FA00D611DEB
:1059E000221F749F3327A00D611D231F849F600D0C
:1059F000211D822F762F6A2F11249F5750408AF045
:105A0000E1F088234AF0EE0FFF1FBB1F661F771FD0
:105A1000881F91505040A9F79E3F510570F01CCF50
:105A2000A6CF5F3FECF3983EDCF3869577956795BC
:105A3000B795F795E7959F5FC1F7FE2B880F911DEE
:105A40009695879597F908950895883008F076C05F
:105A5000E82FF0E0EE0FFF1FE750FD4F71836083EA
:105A60008150873008F03DC0E82FF0E08827E45CE3
:105A7000F24D8F4F0C947335792D432D4B2D572DAF
:105A8000642D852D922D809169008C7F482B409349
:105A90006900E89A089580916900837F440F551F3B
:105AA000440F551F482B40936900E99A089580914F
:105AB00069008F7C74E0440F551F7A95E1F7482BFD
:105AC00040936900EA9A0895809169008F7366E0B7
:105AD000440F551F6A95E1F7482B40936900EB9AF4
