:1000000005C100000C94F8300C9423310C944E314F
:100010000C9479310C94A4310C94CF310C94FA31B6
:100020000C94253224C1000022C1000020C1000030
:100030001EC100001CC100001AC1000018C1000050
:1000400016C1000014C1000012C1000010C1000060
:10005000B7C100000CC100000AC100000C9450326E
:1000600006C100000C944C360C94823600C100008E
:10007000FEC00000FCC00000FAC00000F8C0000094
:10008000F6C00000F4C00000F2C00000F0C00000A4
:100090000C94D8360C940E37EAC00000E8C000007B
:1000A000E6C00000E4C00000E2C00000E0C00000C4
:1000B000DEC00000DCC00000DAC00000D8C00000D4
:1000C000D6C00000D4C000000C94392C0C946437C6
:1000D0000C949A37CCC000000C94F0370C9426385E
:1000E000C6C0000000000A0B02090C0D0E08070331
:1000F00004010000000000000000000000000000FB
:1001000000000000000000000000000000000000EF
:1001100012111000000000000000000000000000AC
:100120000000000000000000000001021020200874
:100130000810204010204080020102010804020142
:1001400001020408102040808040201008040201B1
:10015000800402018040201008040201080402010A
:100160000102040810204080010204081020408091
:1001700005050505070508080808020202020A0A23
:100180000808040404040101010101010101030341
:10019000030303030303040707070C0C0C0C0C0CEC
:1001A0000C0C0202020206060606060606060B0BE9
:1001B0000B0B0B0B0B0B000020002300260029006B
:1001C0002C002F003200000100000301060109018C
:1001D00000002200250028002B002E0031003400F2
:1001E00002010000050108010B01000021002400AC
:1001F00027002A002D003000330001010000040117
:1002000007010A01AB363737C3374F3811241FBEF9
:10021000CFEFD1E2DEBFCDBF00E00CBF13E0A0E026
:10022000B2E0EEEFF1E700E00BBF02C007900D92E5
:10023000AE3AB107D9F72AE0AEEAB3E001C01D92A9
:10024000AC35B207E1F711E0C6E0D1E000E006C04E
:1002500021970109802FFE010E94CC38C230D107BE
:1002600080E00807A9F70E94352D0C94FD38C8CE10
:10027000CF92DF92EF92FF920E949A326B017C0143
:100280008FE10E94FA344091AF035091B003609126
:10029000B1037091B203892B21F18091BD0390913C
:1002A000BE0301969093BE038093BD03D701C601A0
:1002B000841B950BA60BB70B8093B3039093B403E9
:1002C000A093B503B093B603C092AF03D092B0032E
:1002D000E092B103F092B203FF90EF90DF90CF90E5
:1002E00008958091BD039091BE0301979093BE0342
:1002F0008093BD034C195D096E097F094093B303D8
:100300005093B4036093B5037093B603DDCF0F939E
:100310001F93F801D9019C91DA017C91781302C0F6
:10032000691739F0A081B181891751F01197B18314
:10033000A083FA018083D9016C931F910F910895D6
:100340001196F5CF0F931F9369B186B163FB6627B2
:1003500060F90DEB13E025EC33E046EC53E086FB4F
:10036000882780F9D4DF69B189B162FB662760F91B
:100370000BEB13E023EC33E044EC53E0881F8827B9
:10038000881FC5DF6CB18091090165FB662760F9A4
:1003900009EB13E021EC33E042EC53E08170B7DF6E
:1003A0006CB18FB16295617007EB13E02FEB33E016
:1003B00040EC53E086958170AADF1F910F9108955C
:1003C0001F920F920FB60F9211240BB60F922F931C
:1003D0003F934F935F936F937F938F939F93AF93CD
:1003E000BF93EF93FF938091AE03811117C0AADFF3
:1003F00082E08093AE03FF91EF91BF91AF919F9107
:100400008F917F916F915F914F913F912F910F90BD
:100410000BBE0F900FBE0F901F9018958150E9CF23
:100420001092BE031092BD0362E082E10E949134FB
:1004300062E08FE10E94913442E050E068E371E0B5
:1004400085E00E947E300E949A326093AF037093E1
:10045000B0038093B1039093B2038FEF9FE7A0E0C6
:10046000B0E08093B3039093B403A093B503B0932B
:10047000B6030895CF92DF92EF92FF920F931F93EE
:10048000F894C090B303D090B403E090B503F0901B
:10049000B60378940E949A320091AF031091B00392
:1004A0002091B1033091B203601B710B820B930B4F
:1004B00097FF04C06FEF7FEF8FEF9FE797018601F3
:1004C000F7FE07C00027112798010C191D092E09F6
:1004D0003F0906171707280739079CF41C141D0449
:1004E0001E041F043CF090958095709561957F4F98
:1004F0008F4F9F4F1F910F91FF90EF90DF90CF9004
:100500000895C701B601F6CFF8948091BD0390918C
:10051000BE037894089561E082E20E94913461E024
:1005200083E20E94913461E08CE00E949134E1E822
:10053000F0E08081887F816080830895CF93DF938E
:10054000EC0160E018161906C4F482E20E94CD3472
:1005500061E083E20E94CD34BE01D7FF03C07195F4
:10056000619571096F3F710519F014F06FEF70E03C
:100570008CE0DF91CF910C94573383E20E94CD340D
:1005800061E082E2E7CF61E085E20E94913461E0C0
:1005900084E20E94913461E088E00E949134E1EAB3
:1005A000F0E08081887F816080830895CF93DF931E
:1005B000EC0160E018161906C4F485E20E94CD34FF
:1005C00061E084E20E94CD34BE01D7FF03C0719583
:1005D000619571096F3F710519F014F06FEF70E0CC
:1005E00088E0DF91CF910C94573384E20E94CD34A0
:1005F00061E085E2E7CF90E080E008950F931F93DC
:10060000009709F489C06115710509F485C000914E
:10061000DC021091DD022091DE023091DF020E3FFC
:100620001F4F2F4F3F4F09F068C04FEF5FEFBA01E8
:100630004093DC025093DD026093DE027093DF0290
:100640004091DC025091DD026091DE027091DF0288
:10065000DC011296ED91FC9180819181A281B381A0
:100660008093F0049093F104A093F204B093F30408
:1006700084819581A681B7818093EC049093ED04E9
:10068000A093EE04B093EF0480859185A285B38595
:100690008093E8049093E904A093EA04B093EB04F8
:1006A00084859585A685B7858093E4049093E504B9
:1006B000A093E604B093E7041092E0041092E104E2
:1006C0001092E2041092E3040E941C1081E490E175
:1006D0009093C8038093C7039093CA038093C90380
:1006E0000E940B0F009731F421E030E03093F504C5
:1006F0002093F4041F910F9108950091DC02109152
:10070000DD022091DE023091DF02DB010D931D93AB
:100710002D933C93139794CF8FEF9FEFEBCF8F9256
:100720009F92AF92BF92CF92DF92EF92FF921F9370
:10073000CF93DF934B015C011091F70482E090E0CE
:100740009093F5048093F40481149104A104B104FE
:1007500041F48091F704811104C08091F604C1E056
:100760008111C0E0C12CD12C76018091F704811158
:1007700006C08091F604811102C0CC23D9F083E039
:1007800090E09093F5048093F404CC2381F1CCE9BC
:10079000DFEF111102C00E94A613CE01DF91CF91AD
:1007A0001F91FF90EF90DF90CF90BF90AF909F9000
:1007B0008F9008956AE070E080E090E00E94BF3280
:1007C00080E1C80E87E2D81EE11CF11C8FEF88166D
:1007D0009806A806B80631F0C1E08C149D04AE045A
:1007E000BF0408F0C0E080E00E943F0FBECFD0E021
:1007F000C0E0CFCFCF92DF92EF92FF920F931F9383
:10080000CF93DF938F3F910511F008F051C02091F5
:10081000F4043091F5042330310539F02091F404CB
:100820003091F5042130310531F424E030E030938B
:10083000F5042093F4046A017B01EC0182309105F8
:10084000A8F011E0AE01C701B6010E940A0FAB018A
:10085000BC01CE011123F9F0DF91CF911F910F91CF
:10086000FF90EF90DF90CF900C94CF158C01000F8C
:10087000111F09531C4FD8018D919C91892B09F3AD
:100880000E94D9150297E9F6D801ED91FC91CE01AD
:100890001995182FD7CF0E94F11590E080E0DF91D5
:1008A000CF911F910F91FF90EF90DF90CF9008951F
:1008B0008FEF9FEFF4CF80E00C943F0FCF93DF9347
:1008C00086E090E09093F5048093F4040E94980FE2
:1008D000EC01E7ECF3E084E0DF011D928A95E9F793
:1008E0000E943E131092F5041092F404CE01DF91A1
:1008F000CF9108958091F60408958091DF040895C2
:100900006093DC027093DD028093DE029093DF023D
:1009100090E080E00895CF92DF92EF92FF92CF9324
:10092000DF93C0916D04D0916E04E6E1FAE0808D12
:10093000918DA28DB38D88839983AA83BB83848D87
:10094000958DA68DB78D8C839D83AE83BF8380A14B
:1009500091A1A2A1B3A188879987AA87BB8784891F
:100960009589A689B7898C879D87AE87BF8784A123
:1009700095A1A6A1B7A1888B998BAA8BBB8B20913F
:10098000120A3091130A4091140A5091150A60918D
:100990007C0270917D0280917E0290917F020E9484
:1009A0001A306B017C0120E030E0A90160918002E7
:1009B0007091810280918202909183020E941A308C
:1009C0009B01AC01C701B6010E94C72D6C8B7D8BCA
:1009D0008E8B9F8BDF91CF91FF90EF90DF90CF9028
:1009E00008952F923F924F925F926F927F928F92D3
:1009F0009F92AF92BF92CF92DF92EF92FF920F93AE
:100A00001F93CF93DF93CDB7DEB766970FB6F894F9
:100A1000DEBF0FBECDBF2090B6043090B70420914A
:100A2000B9043091BA043A83298331E023163104A2
:100A300009F013C56091A6047091A7048091A804E1
:100A40009091A9046F5F7F4F8F4F9F4F0E94C32EDD
:100A50002091AA043091AB044091AC045091AD04B4
:100A60000E941A306093F1037093F2038093F303B2
:100A70009093F4032091FE093091FF094091000A00
:100A80005091010A6091A0027091A1028091A2028E
:100A90009091A3020E941A306B017C012091020AFE
:100AA0003091030A4091040A5091050A6091A40212
:100AB0007091A5028091A6029091A7020E941A301F
:100AC0009B01AC01C701B6010E94C72D6B017C01DF
:100AD0002091060A3091070A4091080A5091090AAC
:100AE0006091A8027091A9028091AA029091AB0234
:100AF0000E941A309B01AC01C701B6010E94C72DAC
:100B000069877A878B879C876093160A7093170A88
:100B10008093180A9093190A6090EC097090ED097F
:100B20008090EA099090EB09A981BA81CD90DD907F
:100B3000ED90FC90A7019601F401608171818281A2
:100B400093810E94163087FFB6C4A7019601D40195
:100B500054966D917D918D919C9157970E942B2E6B
:100B600018160CF0ABC4E091FC09F091FD09FA8372
:100B7000E9838F01000F111F000F111F5401A00EF8
:100B8000B11EA7019601D5016D917D918D919C912A
:100B90000E9416300C5F1F4F080D191D18160CF01F
:100BA0007DC4F4E0AF1AB108A7019601D5011496EF
:100BB0006D917D918D919C9117970E94163018161A
:100BC0000CF461C429813A813093FD092093FC091A
:100BD000220F331F220F331F3E8B2D8BF901E80D9F
:100BE000F91D80819181A281B38189839A83AB832E
:100BF000BC8389010C5F1F4FF401E00FF11F80815E
:100C00009181A281B3818D839E83AF83B8879C013C
:100C1000AD0169817A818B819C810E942B2E81118B
:100C20005AC429813A814B815C81C701B6010E9477
:100C30002B2E87FF48C4AD89BE89A60DB71DBA8388
:100C4000A9838D919D910D90BC91A02D80931A0A3E
:100C500090931B0AA0931C0AB0931D0A209188024E
:100C60003091890240918A0250918B0269857A8580
:100C70008B859C850E941A309B01AC0160E070E07E
:100C8000CB010E94C62D6B017C0120910A0A309194
:100C90000B0A40910C0A50910D0A609184027091E8
:100CA000850280918602909187020E941A309B01F2
:100CB000AC01C701B6010E94C62D6B017C01C09238
:100CC0001E0AD0921F0AE092200AF092210A809018
:100CD000B0029090B102A090B202B090B302A50110
:100CE00094010E94163018160CF04EC48092220A0D
:100CF0009092230AA092240AB092250A2A942328CB
:100D000009F04EC0C0909402D0909502E0909602F7
:100D1000F0909702A70196016091D0097091D109D6
:100D20008091D2099091D3090E942B2E8823E9F05B
:100D3000C701B60127D7882309F43FC46091940204
:100D40007091950280919602909197021BD7811124
:100D50003FC48D859E85AF85B8898093D0099093D7
:100D6000D109A093D209B093D309CEDBBC01990F6E
:100D7000880B990B0E94C52E9B01AC016091D80293
:100D80007091D9028091DA029091DB020E941A30B0
:100D900060933E0A70933F0A8093400A9093410A01
:100DA0002091FE093091FF094091000A5091010AFB
:100DB0006091600270916102809162029091630281
:100DC0000E941A306B017C012091020A3091030AC3
:100DD0004091040A5091050A609164027091650285
:100DE00080916602909167020E941A309B01AC01CB
:100DF000C701B6010E94C72D6B017C012091060A34
:100E00003091070A4091080A5091090A60916802DE
:100E10007091690280916A0290916B020E941A306F
:100E20009B01AC01C701B6010E94C72D9B01AC011B
:100E30002093260A3093270A4093280A5093290AC0
:100E400060913E0A70913F0A8091400A9091410A58
:100E50000E94C62D6D877E878F87988B8091B60400
:100E60009091B7040197A1F5C0909802D090990293
:100E7000E0909A02F0909B02A70196016091DA0936
:100E80007091DB098091DC099091DD090E942B2E85
:100E90008823E9F0C701B60175D6882309F4A5C3F4
:100EA000609198027091990280919A0290919B02B0
:100EB00069D68111A5C389899A89AB89BC89809338
:100EC000DA099093DB09A093DC09B093DD09D2DA4B
:100ED00020918C0230918D0240918E0250918F02B0
:100EE00060E070E08FE793E40E942F2E2091220AA9
:100EF0003091230A4091240A5091250A0E941A3009
:100F00006B017C010091B8021091B9029091BA0274
:100F10009D83A091BB02A9839601A701B801892FE7
:100F20009A2F0E942B2E87FD16C00091BC021091B3
:100F3000BD02B091BE02BD83E091BF02E98396017C
:100F4000A701B8018B2F9E2F0E94163018161CF097
:100F50008601ED82F982B8018D8199810E94002F6E
:100F60006B017C0154D6811158C3C701B6010AD662
:100F7000811153C320E030E040E857E4C701B601D7
:100F80000E941A2F6B017C0120E030E0A9010E9431
:100F90002B2E87FF45C3C701B60190580E94972E9C
:100FA00088279927861B970BC9DA2091220A30914E
:100FB000230A4091240A5091250A6091C002709141
:100FC000C1028091C2029091C3020E941A306B014B
:100FD0007C012091900230919102409192025091B7
:100FE000930260E070E08FE793E40E942F2E9B0154
:100FF000AC01C701B6010E941A306B017C0100915F
:10100000C4021091C502F091C602FD832091C7026F
:1010100029839B01AC01B8018F2F99810E942B2E4F
:1010200087FD16C00091C8021091C9023091CA0212
:101030003D838091CB0289839601A701B8018D8100
:1010400099810E94163018161CF08601ED82F982F3
:10105000B8018D8199810E94002F6B017C01D7D549
:101060008111E4C2C701B6018DD58111DFC220E034
:1010700030E040E857E4C701B6010E941A2F6B0127
:101080007C0120E030E0A9010E942B2E87FFD1C215
:10109000C701B60190580E94972E88279927861B72
:1010A000970B84DA8090220A9090230AA090240A59
:1010B000B090250A20911E0A30911F0A4091200A03
:1010C0005091210AC501B4010E94C62D20916C02E5
:1010D00030916D0240916E0250916F020E941A3061
:1010E0006B017C012091160A3091170A4091180A71
:1010F0005091190A60911A0A70911B0A80911C0A7A
:1011000090911D0A0E94C62D9B01AC01C701B6013A
:101110000E94C72D60932A0A70932B0A80932C0A91
:1011200090932D0A8091020A9091030AA091040ADB
:10113000B091050A89839A83AB83BC838091FE09B1
:101140009091FF09A091000AB091010A8D839E83BE
:10115000AF83B8878091060A9091070AA091080A88
:10116000B091090A89879A87AB87BC87A0E3B2E070
:10117000BA8BA98B8EE2282E8AE0382E09891A892B
:10118000F8013496FA8BE98BD8011C962D913D918C
:101190004D915C911F9769817A818B819C810E941E
:1011A0001A306B017C01F801208131814281538129
:1011B0006D817E818F8198850E941A309B01AC01E0
:1011C000C701B6010E94C72D6B017C01A989BA89AC
:1011D00054962D913D914D915C91579769857A85F3
:1011E0008B859C850E941A309B01AC01C701B6011A
:1011F0000E94C72D6B017C01E989FA8920A131A1E8
:1012000042A153A1C501B4010E941A302B013C0137
:10121000A989BA89DC962D913D914D915C91DF971A
:101220006D857E858F8598890E941A309B01AC015F
:10123000C301B2010E94C72D9B01AC01C701B601D9
:101240000E94C72DF10161937193819391931F01C6
:101250002CE332E089899A892817390709F08ECF63
:101260002091120A3091130A4091140A5091150AE4
:101270006091D0027091D1028091D2029091D302FC
:101280000E941A3060933A0A70933B0A80933C0A9A
:1012900090933D0A8091B6049091B704019709F0AC
:1012A000C3C04091A6045091A7046091A804709116
:1012B000A90490E080E09EDA8091B6049091B70492
:1012C000019709F0B1C04091AE045091AF04609114
:1012D000B0047091B10481E090E08CDA8091B604A2
:1012E0009091B704019709F09FC08090F10390900E
:1012F000F203A090F303B090F403E091F503F091B2
:10130000F6034080518062807380E0912504F09163
:10131000260410810181E091E903F091EA03E08065
:10132000F180E091E703F091E80311821082E091EF
:101330001F04F0912004E082F182EDDAE0912104B3
:10134000F09122040190F081E02D80829182A282AE
:10135000B38219830A838701C980DA8098E1C90EB4
:10136000D11CA981BA818D909D90AD90BD90BA831A
:10137000A983F80121913191419151918F017D0112
:10138000F4E0EF1AF108C301B2010E941A30A5017E
:1013900094010E94C72DD7016D937D938D939C93EB
:1013A0001397E981FA81CE16DF06D9F6E091E703BB
:1013B000F091E80381E090E0918380838091A6041E
:1013C0009091A704A091A804B091A9040196A11D31
:1013D000B11D8093A6049093A704A093A804B09392
:1013E000A9048091F1039091F203A091F303B091CD
:1013F000F403E091B904F091BA0480839183A2834D
:10140000B3838091AE049091AF04A091B004B091E9
:10141000B1040196A11DB11D8093AE049093AF0459
:10142000A093B004B093B10466960FB6F894DEBFF3
:101430000FBECDBFDF91CF911F910F91FF90EF9025
:10144000DF90CF90BF90AF909F908F907F906F90E4
:101450005F904F903F902F9008952114310409F030
:1014600009CBE0912104F09122040190F081E02D5C
:1014700080819181A281B381E981FA818083918306
:10148000A283B383F7CAE981FA813197FA83E983AA
:1014900088CBE981FA813196FA83E983D8016D918D
:1014A0007D918D919D918D01A70196010E942B2E1A
:1014B00018167CF787CB1A82198284CBE4E0F0E01F
:1014C000FA83E9837FCB060D171DF8018081918196
:1014D000A281B381BBCB2D893E89260D371DD90151
:1014E0008D909D90AD90BC90060D171DF801408029
:1014F000518062807380A3019201C501B4010E94F2
:101500002B2E8823C1F1A70196016D817E818F81E9
:1015100098850E94C62D6B017C0129813A814B81FF
:101520005C816D817E818F8198850E94C62D9B0193
:10153000AC01C701B6010E942F2E6B017C01AC01EA
:101540009B0160E070E080E89FE30E94C62DA3014C
:1015500092010E941A302B013C01A5019401C701A0
:10156000B6010E941A309B01AC01C301B2010E9476
:10157000C72D4B015C0180921A0A90921B0AA0921F
:101580001C0AB0921D0A6ACB8090B4029090B502FA
:10159000A090B602B090B702A5019401C701B601B0
:1015A0000E942B2E87FDA2CBC092220AD092230A42
:1015B000E092240AF092250AA1CB609194027091E6
:1015C0009502809196029091970221D38111B6CB1A
:1015D0008091940290919502A0919602B091970209
:1015E0008D879E87AF87B88BB4CB6091980270913E
:1015F000990280919A0290919B0209D3811150CC5B
:101600008091980290919902A0919A02B0919B02C8
:10161000898B9A8BAB8BBC8B4ECCC12CD12C760199
:10162000C701B6010E94972ECB01BECCC12CD12C94
:101630007601C701B6010E94972ECB0132CD8F9261
:101640009F92AF92BF92CF92DF92EF92FF92CF9391
:1016500084E090E060D2E1EEF3E082EEDF011D92E3
:101660008A95E9F786EB94E09093E8038093E7038B
:1016700089EB94E090932204809321048AEA94E019
:101680009093F6038093F5038DE694E09093200405
:1016900080931F0487E694E09093260480932504AA
:1016A0008EE994E0909324048093230480EA94E0EC
:1016B000909328048093270489E694E090932A0469
:1016C000809329048BE694E090932C0480932B0460
:1016D000F0934C04E0934B04F093E603E093E503AE
:1016E00081E090E09093B7048093B60484E794E09F
:1016F00090938D0480938C048EEF99E0909368040E
:10170000809367048CE894E09093EA038093E90364
:1017100085E193E09093EC038093EB032BEB34E0B3
:101720003093BA042093B90480E090E0A0E2B1E4E1
:101730008093B2049093B304A093B404B093B5041F
:101740008FE692E1A3E0BBE38093AA049093AB04FD
:10175000A093AC04B093AD0484EC97E7A4EBBBE991
:1017600080938E0490938F04A0939004B09391047F
:101770008CE79FE8AFE8B6E68093920490939304D9
:10178000A0939404B09395048FEC93E0A1EDBDE099
:101790008093960490939704A0939804B09399042F
:1017A00087EA9EE6A2E3B8E180939A0490939B04B3
:1017B000A0939C04B0939D0485ED93E09093E40383
:1017C0008093E3038BEC93E09093D6038093D5034F
:1017D0008AE193E09093CC038093CB039093CE0364
:1017E0008093CD039093D0038093CF039093D20343
:1017F0008093D1039093D4038093D30384EA94E03D
:101800009093DA038093D9038EE894E09093D80301
:101810008093D7033093DC032093DB03E6E1FAE007
:101820008CE2DF011D928A95E9F7EAECF9E084E3A6
:10183000DF011D928A95E9F788E192E09093EB0928
:101840008093EA0980E092E09093ED098093EC099F
:1018500080919C0290919D02A0919E02B0919F0266
:101860008093FE099093FF09A093000AB093010AA8
:101870008093020A9093030AA093040AB093050A86
:101880008093060A9093070AA093080AB093090A66
:101890008091AC029091AD02A091AE02B091AF02E6
:1018A00080930A0A90930B0AA0930C0AB0930D0A36
:1018B0008091CC029091CD02A091CE02B091CF0246
:1018C00080930E0A90930F0AA093100AB093110A06
:1018D0008091D4029091D502A091D602B091D70206
:1018E0008093120A9093130AA093140AB093150AD6
:1018F0006091940270919502809196029091970266
:1019000041D1882309F47CC06091940270919502C2
:10191000809196029091970235D181117CC080927E
:10192000D0099092D109A092D209B092D30981E056
:1019300090E0A0E0B0E08093CB099093CC09A09315
:10194000CD09B093CE090E94100281E08093CF09A7
:101950001092D409609198027091990280919A0234
:1019600090919B020FD1882309F45EC06091980288
:101970007091990280919A0290919B0203D18111FA
:101980005EC0C092DA09D092DB09E092DC09F092E5
:10199000DD09C12CD12C7601C394C092D509D09217
:1019A000D609E092D709F092D8090E941002C1E04E
:1019B000C093D9091092DE09C092DF09D092E009E4
:1019C000E092E109F092E2090E948B02C093E309E0
:1019D0001092E409C092E509D092E609E092E70985
:1019E000F092E8090E94C302C093E909CF91FF90E9
:1019F000EF90DF90CF90BF90AF909F908F90089521
:101A00006091940270919502809196029091970254
:101A1000FED0811179CF8090940290909502A09091
:101A20009602B09097027BCF6091980270919902D4
:101A300080919A0290919B02EAD0811197CFC09039
:101A40009802D0909902E0909A02F0909B0299CF70
:101A50008091CA09811103C081E08093CA098091F5
:101A6000D409811103C081E08093D4098091DE09FB
:101A7000811117C081E08093DE098091DF09909188
:101A8000E009A091E109B091E2090197A105B10532
:101A900041F48091E309882321F090E080E00E94E6
:101AA0009E028091E409811117C081E08093E409CE
:101AB0008091E5099091E609A091E709B091E809C4
:101AC0000197A105B10541F48091E909882321F02E
:101AD00090E080E00C94D602089560E070E080E829
:101AE0009FE7089560E070E080E89FE7089560E078
:101AF00070E080E89FEF089560E070E080E89FEF7D
:101B0000089560E070E080EC9FEF089560E070E081
:101B100080EC9FEF0895F5DF60934E0A70934F0AB3
:101B20008093500A9093510AF1DF6093420A7093B8
:101B3000430A8093440A9093450ACFDF60934A0A90
:101B400070934B0A80934C0A90934D0ACBDF6093BD
:101B5000460A7093470A8093480A9093490AC7DF60
:101B60006093520A7093530A8093540A9093550AD3
:101B7000C3DF6093560A7093570A8093580A909374
:101B8000590A0895CF92DF92EF92FF92CF936B01A3
:101B90007C01AC019B0160914A0A70914B0A8091D3
:101BA0004C0A90914D0A0E942B2EC1E0882371F0BF
:101BB000A70196016091520A7091530A8091540ACC
:101BC0009091550A0E942B2E8111C0E08C2FCF914D
:101BD000FF90EF90DF90CF9008950F931F938B01AC
:101BE0009C010027112720783F7701151105204817
:101BF0003F4749F4AB01BC016F77772781E0452B64
:101C0000462B472B09F480E01F910F910895E5CFF3
:101C10004F925F926F927F928F929F92AF92BF92FC
:101C2000CF92DF92EF92FF920F931F93F894409020
:101C3000CF045090D0046090D1047090D204C09032
:101C4000C304D090C404E090C504F090C6044130B1
:101C5000510509F0A4C09B01AC01241935094609BE
:101C6000570929013A010091CB041091CC0420912D
:101C7000CD043091CE0448015901840C951CA61C5A
:101C8000B71C80169106A206B306A0F40091C70403
:101C90001091C8042091C9043091CA040F5F1F4FEE
:101CA0002F4F3F4F0093C7041093C8042093C904DB
:101CB0003093CA048092CB049092CC04A092CD04BD
:101CC000B092CE040091C7041091C8042091C904B9
:101CD0003091CA048092D3049092D404A092D50487
:101CE000B092D6040093D7041093D8042093D9045B
:101CF0003093DA046093CF047093D0048093D104BE
:101D00009093D204A0EDB7E0A30192010E94D438D1
:101D10006C0D7D1D8E1D9F1D6093C3047093C404C4
:101D20008093C5049093C6040091DC021091DD02FB
:101D30002091DE023091DF020F3F1F4F2F4F3F4FA8
:101D4000F1F00091DC021091DD022091DE02309171
:101D5000DF020E3F1F4F2F4F3F4F89F0C090DC0234
:101D6000D090DD02E090DE02F090DF0221E08C14E2
:101D70009D04AE04BF0408F420E02093DF047894AF
:101D80001F910F91FF90EF90DF90CF90BF90AF9099
:101D90009F908F907F906F905F904F9008954B0130
:101DA0005C0184189508A608B708A3019201261BB8
:101DB000370B480B590B6415750586059705D0F050
:101DC00082169306A406B50640F420E030E0A9018F
:101DD00081149104A104B10491F4A0EDB7E00E9434
:101DE000D438A7019601261B370B480B590BCA01A3
:101DF000B901C5CF82169306A406B50670F7A0ED0B
:101E0000B7E0A50194010E94D4386C0D7D1D8E1D94
:101E10009F1DB5CFFDCECF93DF9300D01F92CDB7DE
:101E2000DEB71C821B821A8219821092DB04109288
:101E3000DC041092DD041092DE04BE016F5F7F4F60
:101E4000CE0103960E94012C69817A818B819C814D
:101E50000E94EF24009761F4BE016F5F7F4FCE01B7
:101E600003960E940D2C69817A818B819C812FD5EC
:101E70000F900F900F900F90DF91CF910895FF92E8
:101E80000F931F93CF93DF93082F60E070E0CB0197
:101E90000E94BF32FF24F3940E94D823EC01892BC7
:101EA00089F010E0CE3F8FEFD80769F0002361F191
:101EB00060E070E0CB010E94BF3281E090E0892BAE
:101EC00059F322C011E026D5EC01892B21F0CE3F39
:101ED0008FEFD80759F711111EC011E0229609F4AF
:101EE00010E00E948823EC01892B21F0CE3F8FEF78
:101EF000D807E1F6111111C011E0CE3F8FEFD807DE
:101F000009F410E001110BC0CE01DF91CF911F91B8
:101F10000F91FF90089511E0E4CF11E0F3CF60E05E
:101F200070E0CB010E94BF321F25812F90E0C7CF08
:101F3000CF93DF938091DF04882321F060E070E08D
:101F4000CB014DD636D6D0E0C0E0892B71F06AE0E7
:101F500070E080E090E00E94BF3281E090DF29D6FF
:101F60002196C03D27E0D20781F728D60E9443255D
:101F70001092F7041092F6041092F0041092F104FB
:101F80001092F2041092F3041092EC041092ED04FB
:101F90001092EE041092EF041092E8041092E904FB
:101FA0001092EA041092EB041092E4041092E504FB
:101FB0001092E6041092E7041092E0041092E104FB
:101FC0001092E2041092E3044EEF5FEF6FEF7FEFA9
:101FD0004093DC025093DD026093DE027093DF02D7
:101FE0001092DF04E3EDF4E028E0DF011D922A9572
:101FF000E9F71092CF041092D0041092D1041092FD
:10200000D2041092CB041092CC041092CD04109202
:10201000CE041092C7041092C8041092C904109202
:10202000CA041092C3041092C4041092C504109202
:10203000C604DF91CF910895109203051092040514
:1020400010920505109206051092020580910B056D
:1020500090910C0590930105809300051092FF0468
:102060001092FE041092FA041092FB041092FC04E9
:102070001092FD04109208051092070590E080E090
:102080000895CF92DF92EF92FF920F931F93CF9319
:102090008C01019709F055C020910B0530910C057A
:1020A000809100059091010540910B0550910C0520
:1020B00050930105409300052817390781F01092CD
:1020C000FF041092FE041092FA041092FB04109286
:1020D000FC041092FD0410920805109207058091EF
:1020E0000B0590910C05019761F580910705909182
:1020F0000805892B21F48091E002811112C08091A2
:102100000705909108050197E1F48091FA049091F8
:10211000FB04A091FC04B091FD040197A105B10559
:1021200081F41092FA041092FB041092FC041092B5
:10213000FD041092E00282E090E090930805809305
:10214000070580910B0590910C05019709F01CC1C2
:1021500080912105909122058017910709F014C103
:1021600080911D0590911E05A0911F05B09120053D
:10217000009709F409C120911C0521110DC040915F
:102180001D0550911E0560911F0570912005452B7E
:10219000462B472B09F4F8C020910705309108051C
:1021A0002230310509F0F0C02091FE042111ECC06D
:1021B000FC01C080D180E280F380809102058823F9
:1021C00009F4D3C080910E0590910F05892B09F475
:1021D000FEC020910E0530910F0581E022303105BF
:1021E00009F080E020910E0530910F05C1E021300B
:1021F000310549F020910E0530910F05C1E02230E4
:10220000310509F0C0E0882309F456C02091180573
:102210003091190540911A0550911B05C701B6016F
:102220000E94163087FD14C02091180530911905C1
:1022300040911A0550911B056091030570910405AA
:1022400080910505909106050E942B2E87FD22C0E6
:10225000209118053091190540911A0550911B05E0
:10226000C701B6010E941630181634F520911805E2
:102270003091190540911A0550911B056091030595
:102280007091040580910505909106050E942B2E02
:10229000811112C08091100590911105A091120535
:1022A000B0911305892B8A2B8B2B19F481E0809335
:1022B000FF0481E08093FE04CC2309F456C02091F2
:1022C00018053091190540911A0550911B05C70159
:1022D000B6010E942B2E87FF14C020911805309163
:1022E000190540911A0550911B05609103057091E5
:1022F000040580910505909106050E94163087FF20
:1023000022C0209118053091190540911A0550916D
:102310001B05C701B6010E942B2E811126C02091FA
:1023200018053091190540911A0550911B056091CF
:1023300003057091040580910505909106050E94A2
:102340001630181694F48091100590911105A09103
:102350001205B0911305892B8A2B8B2B19F481E080
:102360008093FF0481E08093FE0481E09091FE045D
:10237000911180E080930205C0920305D09204057C
:10238000E0920505F09206050130110509F067C1DC
:102390008091070590910805892BD9F410920D05BD
:1023A0001092FE048091E002882379F082E090E0B0
:1023B00090930805809307051092E00220910B0589
:1023C00030910C0581E0232BE9F080E01BC081E017
:1023D00009CF1092E00280910D05882349F01092F8
:1023E000FF04109208051092070510920D05EDCF1D
:1023F00080910B0590910C05892BE1F08091FE04F2
:102400001092FE0420910705309108052230310515
:1024100009F45EC088F42115310509F448C0213063
:10242000310509F4F3C01092FF041092FE041092DB
:102430000D0538C081E0E6CF2330310509F4B1C085
:102440002430310581F74091FA045091FB046091EA
:10245000FC047091FD04411551056105710561F0A1
:1024600041505109610971094093FA045093FB04EA
:102470006093FC047093FD044091FA045091FB04B6
:102480006091FC047091FD04452B462B472BD9F439
:102490002091090530910A052130310509F046C027
:1024A0001092FF0410920805109207050CC080914D
:1024B000E002882341F082E090E090930805809349
:1024C00007051092E0021092F8048091FF04CEC03C
:1024D0008823C9F38091100590911105A0911205F0
:1024E000B0911305181619061A061B060CF07DC0CC
:1024F00080910B0590910C05019709F076C08091B1
:10250000100590911105A0911205B09113058093CB
:10251000FA049093FB04A093FC04B093FD0483E0C1
:1025200090E09093080580930705CDCF4091140566
:10253000509115056091160570911705452B462B96
:10254000472BA9F01092FF04809114059091150576
:10255000A0911605B09117058093FA049093FB049F
:10256000A093FC04B093FD0481E090E0DACF8823CF
:1025700099F08091E1029091E202A091E302B09182
:10258000E4028093FA049093FB04A093FC04B093BC
:10259000FD0484E090E0C5CF1092FF0482E090E05B
:1025A000C0CF8091FA049091FB04A091FC04B091FB
:1025B000FD040097A105B10559F00197A109B109E2
:1025C0008093FA049093FB04A093FC04B093FD0461
:1025D0008091FA049091FB04A091FC04B091FD0459
:1025E000892B8A2B8B2B09F06ECF8091E102909181
:1025F000E202A091E302B091E402892B8A2B8B2B9B
:1026000009F44ECF81E08093FF04B3CF4091FA04E8
:102610005091FB046091FC047091FD04411551053B
:102620006105710561F041505109610971094093DB
:10263000FA045093FB046093FC047093FD044091F2
:10264000FA045091FB046091FC047091FD04452B49
:10265000462B472B09F037CF8111C7CF9FCF8091F1
:10266000F804882309F431CF8091F904CF911F91A8
:102670000F91FF90EF90DF90CF9008951092030597
:10268000109204051092050510920605109202059D
:10269000109208051092070510920105109200058E
:1026A00010922205109221051092FF041092FE0450
:1026B0001092FA041092FB041092FC041092FD0494
:1026C0001092F9041092F80410921D0510921E0544
:1026D00010921F051092200510921C0510921805EB
:1026E0001092190510921A0510921B0588EE93E0BE
:1026F000A0E0B0E08093E1029093E202A093E302B5
:10270000B093E4021092140510921505109216056C
:1027100010921705109210051092110510921205D3
:102720001092130510920F0510920E0581E0809310
:10273000E00210920D0510920C0510920B051092FC
:102740000A051092090590E080E0089580910B053C
:1027500090910C05892B19F58091E002882351F0A6
:1027600080910D05811106C081E08093F90480936A
:10277000F804089520910D053091E00281E090E089
:10278000332311F090E080E030E082239323892B03
:1027900021F01092F90481E0EACF1092F804089534
:1027A00082E090E0FA01918380838FEF9FEF08959C
:1027B000CF93DF93EA01009711F00E9463261982FC
:1027C000188290E080E0DF91CF910895DB010097BF
:1027D00019F48FEF8C9308952EEF2C93FC013F9604
:1027E000EF30F10508F034C08827E650FC4E8F4FDB
:1027F0000C94CC3826142414221420141E141A14F9
:102800001C1418141614141411140D1409140F1494
:10281000281480E311968C93089589E2FBCF82E21D
:10282000F9CF11961C92089583E2F4CF81E2F2CFA2
:1028300081E1F0CF87E2EECF8AE2ECCF80E1EACF10
:1028400084E2E8CF88E2E6CF86E2E4CF81E3E2CF1C
:1028500080E2E0CF80912F0590913005089590930C
:10286000300580932F05089580912E05089590914D
:102870002E05892B80932E050895982F9095809191
:102880002E05892380932E05089580912D050895A6
:1028900080912B0590912C0508956115710559F0D3
:1028A000FB0130E020E070E060E02417350719F00C
:1028B0006115710511F0CB010895A081B181A817B0
:1028C000B90709F4BF012F5F3F4F3696EECF8091D5
:1028D000310581111CC060D266D29093240580938B
:1028E00023050E946F1E0E94811E909328058093ED
:1028F00027050E94F0220E94F722909326058093DC
:10290000250581E08093310590E080E0089584EF13
:102910009FEF08958F929F92AF92BF92CF92DF92D6
:10292000EF92FF920F931F93CF93DF9300D000D0CD
:1029300000D01F92CDB7DEB71A86198618861F827F
:102940001E821D821C821B821A821982809131058F
:1029500007EF1FEF882309F49CC08E010D5F1F4F06
:102960009E012B5F3F4FAE01495F5F4FBE01675F26
:102970007F4F90E080E00E9474248C01009721F04A
:102980000596029708F0DBC029853A8521153105A7
:1029900009F402C1ED80FE804B815C81B701640FB8
:1029A000751F8F8198858617970708F4F5C0E20E8A
:1029B000F31ED7019C91903C09F07FC04230510535
:1029C00008F47BC011968C9140912F0550913005F1
:1029D000452B09F49CC0913F08F071C02CE1290FF0
:1029E0002D3008F48BC02DE2290F203108F489C066
:1029F000903C21F48150823008F483C088E3890F31
:102A00008B3008F481C096EEC92E93E1D92EE0ED0B
:102A1000F3E16D817E81AE014F5F5F4F89859A85BD
:102A200019955C01C114D104A1F189809A808114A7
:102A3000910479F18B819C818815990508F487C0F0
:102A400010E000E04B815C8170E060E0C7010E9413
:102A5000F63801151105E9F449815A8169857A85AD
:102A60008D819E81680F791FC501F6011995E98056
:102A7000FA800D811E812F81388549855A856FEF37
:102A80007FEF81E090E00E940F248C01892B09F0F8
:102A900056C0C8012A960FB6F894DEBF0FBECDBF50
:102AA000DF91CF911F910F91FF90EF90DF90CF902A
:102AB000BF90AF909F908F90089580E085CF30E0D9
:102AC00020E0220F331FF901ED5DFA4F0190F081F4
:102AD000E02D309709F497CF892F90E01995009752
:102AE00009F491CFDC011296ED91FC9113971496A5
:102AF000CD90DC90309709F08CCF1FC021E030E002
:102B0000E0CF22E030E0DDCF23E030E0DACFD12C9F
:102B1000C12CE8EDF3E19F3F09F07BCFE091230565
:102B2000F0912405309721F4C90104EF1FEF0CC088
:102B30008FEF90E019950097A9F604EF1FEF8985B4
:102B40009A85009709F4A5CF0E946326A2CF0E9420
:102B50003E258C0189859A850E94632670E060E09D
:102B6000C4010E94D72498878F830E940C249E83DF
:102B70008D836F8178856115710559F0C8010E94B8
:102B8000EF279A87898706EF1FEF892B09F058CF27
:102B900059CF08EF1FEF56CF08EF1FEFD0CF20918E
:102BA0003105222319F020E00C94861E87EF9FEF59
:102BB000089580912F059091300508950E94FC2280
:102BC0000E945622F5D0E3E2F5E088E0DF011D9295
:102BD0008A95E9F71092310590E080E008950C9411
:102BE000B42021E040E050E0BA010C94861E86E05B
:102BF00090E0FA019183808390E080E0089547E0BF
:102C000050E06DE173E049CEDF92EF92FF920F93B7
:102C10001F93CF93DF938A01EC01C60FD71FE0907B
:102C20003505F0903605D9800E942625D81619065C
:102C300078F082E090E0F801918380838EEF9FEF3F
:102C4000DF91CF911F910F91FF90EF90DF9008954A
:102C5000EF2841F482E090E0F8019183808384EFD3
:102C60009FEFEECF89818093340590E00196F801C3
:102C70009183808390E080E0E3CFCF93DF93EA01FC
:102C80000E946521882321F00E9433250E9466213D
:102C900082E090E0998388838BEF9FEFDF91CF9163
:102CA0000895CF93DF93EB0186E0FB0111928A95A3
:102CB000E9F78FEF8883D8DD8983E7DD8A83E8DD54
:102CC0009D838C83DF91CF910895CF93DF93EA01A9
:102CD0000E946821811109C082E090E09983888375
:102CE00085EF9FEFDF91CF91089590E080E0B7DD11
:102CF00081E090E09983888390E080E0F3CF0F93A8
:102D00001F93CF93DF93EA018C01060F171F0E94D8
:102D1000682181110BC082E090E09983888385EF60
:102D20009FEFDF91CF911F910F910895F80181815D
:102D3000823038F082E090E0998388838EEF9FEFB5
:102D4000F0CF81E090E08BDD88E090E0998388838C
:102D500090E080E0E6CFCF93DF930097D1F4EB01D2
:102D6000FB01329686E0DF011D928A95E9F78FEF2D
:102D7000888385E089831A820E9426258B830E949E
:102D800025259D838C8381E08E838F83DF91CF9176
:102D90000895DF91CF911ACD8FEF95E19093330590
:102DA00080933205089580913205909133050895FE
:102DB0001092330510923205089580913505909157
:102DC00036050895411105C061157105810591050C
:102DD00061F06093350570933605809337059093C5
:102DE00038054093390581E0089580E00895FF9209
:102DF0000F931F93CF93DF938A01EC01C60FD71F68
:102E0000F9800E942625F816190668F082E090E005
:102E1000F801918380838EEF9FEFDF91CF911F9117
:102E20000F91FF9008956C817D818E819F814B81F0
:102E3000C9DF811108C082E090E0F80191838083AE
:102E400084EF9FEFEACF89818093340590E001966B
:102E5000F8019183808390E080E0DFCFCF93DF9310
:102E6000EA01FC01E60FF71F648175818681978175
:102E70004381A8DF811109C082E090E099838883B3
:102E800084EF9FEFDF91CF91089581E090E09983E7
:102E9000888390E080E0F6CFE5E3F5E04081518162
:102EA00062817381480F511D611D711D40835183E3
:102EB000628373830895CF93C09134054C2F50E003
:102EC000609135057091360501960E94ED388C2F82
:102ED000E3DF10923405CF910895009799F4809123
:102EE0003505909136052FEFFB012083892B59F092
:102EF0002091340530E02F5F3F4F2417350719F438
:102F0000CB01D9CF63CC0895009799F48091350512
:102F1000909136052FEFFB012083892B59F02091EA
:102F2000340530E02F5F3F4F2417350719F4CB01EC
:102F3000C2CF4CCC089523E1AC01249FC001259F52
:102F4000900D1124E0913E05F0913F05E80FF91F27
:102F5000238134812250310981E02230310508F08B
:102F600080E008950F931F93CF93DF930091400566
:102F700010914105D0E0C0E080E00C171D0749F436
:102F800091E0811190E0892FDF91CF911F910F91F6
:102F900008958111F5CFCE01CEDF2196EECFA0911D
:102FA0003E05B0913F05109729F1209140053091E1
:102FB000410582179307F0F453E1589F9001599F00
:102FC000300D1124A20FB31FED91FC911197309792
:102FD00089F012968C91681768F48BE0689FE00D79
:102FE000F11D112480819181892B21F081E0928152
:102FF000491708F080E008959C0143E1429FC00119
:10300000439F900D1124E0913E05F0913F05E80F9C
:10301000F91F8385823091F481E090E065817681AB
:103020004091E5025091E6026417750711F490E0B3
:1030300080E0892B19F081E0232B09F080E00895CE
:10304000EF92FF920F931F93CF93DF93EA01FC015E
:10305000E60FF71F02811381E480F5804F2D6E2D5E
:10306000C8019DDF81110DC082E090E099838883C3
:103070008EEF9FEFDF91CF911F910F91FF90EF9017
:103080000895C80158DF882339F082E090E09983E1
:10309000888388EF9FEFEECF1093EC020093EB0252
:1030A000E092ED02F092EE0281E090E09983888355
:1030B00090E080E0DFCFCF92DF92EF92FF920F930C
:1030C0001F93CF93DF937A01EC01C60FD71FC090F7
:1030D000EB02D090EC020091ED021091EE02412F34
:1030E000602FC6015CDF811110C082E090E0F70123
:1030F000918380838AEF9FEFDF91CF911F910F9192
:10310000FF90EF90DF90CF900895C60114DF8823E1
:1031100041F082E090E0F7019183808388EF9FEF98
:10312000EBCF4C815D816E817F819A8189818F3F58
:1031300041F082E090E0F701918380838EEF9FEF72
:10314000DBCFE3E1EC9D9001ED9D300D1124E0918A
:103150003E05F0913F05E20FF31F0190F081E02D55
:103160002BE0029FE00DF11D11240190F081E02D74
:1031700027E0129FE00DF11D1124808391838B8144
:10318000828343835483658376831F5F1093EE02AB
:1031900081E090E0F7019183808390E080E0ACCF04
:1031A000EF92FF920F931F93CF93DF937A018C01DD
:1031B000060F171FC0913E05D0913F05209781F063
:1031C00021E030E0F80182819381409140055091E7
:1031D00041058417950710F030E020E0232B71F4AF
:1031E00082E090E0F701918380838EEF9FEFDF9183
:1031F000CF911F910F91FF90EF90089543E1489F69
:103200009001499F300D1124C20FD31F94DE8823F3
:1032100041F082E090E0F7019183808388EF9FEF97
:10322000E6CFF8012481358120383105C8F6878141
:103230008111D6CF4181842F90E08F7E009741F09D
:1032400082E090E0F7019183808386EF9FEFCFCFFC
:103250004F833E832D83268128871986223010F4E0
:1032600021E0288721E030E0F70131832083BFCFC0
:1032700088E090E0FA019183808390E080E00895F7
:10328000FB018FEF808381E181838FEF9FEF938339
:10329000828380E890E09583848316821782089564
:1032A000FB018FEF808391E09183828393838483FA
:1032B00084E3858381E090E0978386830895DF929D
:1032C000EF92FF920F931F93CF93DF93EA01FC01DC
:1032D000E60FF71F8181813071F082E090E09983E1
:1032E00088838FEF9FEFDF91CF911F910F91FF9018
:1032F000EF90DF90089582819381D4802581E680CC
:10330000F78000913E0510913F050115110539F434
:1033100082E090E0998388838CEF9FEFE4CF409127
:103320004005509141058417950738F082E090E000
:10333000998388838EEF9FEFD6CF892B39F082E077
:1033400090E09983888386EF9FEFCDCF8D2D8D7F81
:10335000B1F72130A1F781E0D11006C091E0E91664
:10336000F10431F080E004C0E2E0EE16F104D0F3A5
:10337000882329F390E080E0DEDD882339F082E0C5
:1033800090E09983888388EF9FEFADCFF801D386D3
:1033900081E08487F686E586108A178681E090E0D2
:1033A0009983888390E080E09ECF4CE050E067E412
:1033B00073E073CA8F929F92BF92CF92DF92EF9287
:1033C000FF920F931F93CF93DF93EA01FC01E60F67
:1033D000F71F828193810481B580E0913E05F091D1
:1033E0003F05309791F482E090E0998388838CEFD9
:1033F0009FEFDF91CF911F910F91FF90EF90DF90A2
:10340000CF90BF909F908F9008952091400530916C
:1034100041058217930738F082E090E09983888312
:103420008EEF9FEFE6CF23E1289F6001299FD00C0C
:103430001124EC0DFD1DE080F180E114F10499F2FE
:103440008281081748F78BE0089F80011124E00E65
:10345000F11EF70180819181892B29F6BB20E1F2D1
:10346000F7E0BF9E40011124C4010E942A26F70103
:1034700091838083E0913E05F0913F05EC0DFD1DA9
:103480000190F081E02DE00FF11F80819181009784
:1034900039F482E090E0998388838DEF9FEFA9CF84
:1034A000A40170E060E00E94F63880913E059091A2
:1034B0003F05C80ED91EF60180819181080F191FA2
:1034C000F801B28281E090E09983888390E080E007
:1034D00090CFAF92BF92CF92DF92FF920F931F9344
:1034E000CF93DF93EA01FC01E60FF71F82819381FE
:1034F000F48000913E0510913F050115110581F4FE
:1035000082E090E0998388838CEF9FEFDF91CF91E9
:103510001F910F91FF90DF90CF90BF90AF900895D3
:1035200020914005309141058217930738F082E0E1
:1035300090E0998388838EEF9FEFE8CF2FEF2F0DD8
:103540002C3FA8F723E1289F6001299FD00C11246C
:103550000C0D1D1DF80180819181892B89F6FBE0FE
:10356000FF9E50011124C5010E942A26F801918373
:103570008083E0913E05F0913F05EC0DFD1D8081BB
:103580009181009739F482E090E0998388838DEFF0
:103590009FEFBCCFA50170E060E00E94F638E0919B
:1035A0003E05F0913F05EC0DFD1DF28281E090E0BB
:1035B0009983888390E080E0A9CFCF92DF92EF9249
:1035C000FF920F931F93CF93DF93860F971FFC01FA
:1035D0000281138180913E0590913F05892B81F0F6
:1035E00082E090E0FA01918380838CEF9FEFDF917E
:1035F000CF911F910F91FF90EF90DF90CF900895A2
:10360000C801B0E0A0E00197A109B1098F3F9F4F29
:10361000A105B10540F082E090E0FA01918380833A
:103620008EEF9FEFE4CF7A0183E1809F6001819F5D
:10363000D00C1124C6010E942A26EC01009741F407
:1036400082E090E0F701918380838DEF9FEFCFCFF1
:10365000A60170E060E00E94F638D0933F05C09369
:103660003E05109341050093400590E080E02FEF68
:103670003FEF41E061E070E08017910741F481E0A5
:1036800090E0F7019183808390E080E0B0CF3A8BA7
:10369000298B1B864C877E876D87188A1F8601962B
:1036A0006396EACFCF92DF92EF92FF920F931F9330
:1036B000CF93DF93EC01D12CC12C10E000E0F12C72
:1036C000E12C6A816017110609F0CCF483E0689F51
:1036D000B0011124AE014F5E5F4FC7010E948F26DB
:1036E000009721F02FEF3FEF3A8B298BDF91CF919D
:1036F0001F910F91FF90EF90DF90CF900895E88198
:10370000F981EC0DFD1D438154818D859E85489F77
:103710009001499F300D589F300D1124C901019629
:103720000115110519F44F8144FD049661E070E024
:103730000E94D724E816F90608F47C010F5F1F4F9A
:103740008BE0C80ED11CBDCFF89420913C05309180
:103750003D0581E02115310509F080E0232B09F0BA
:10376000789408952F923F924F925F926F927F923A
:103770008F929F92AF92BF92CF92DF92EF92FF9281
:103780000F931F93CF93DF933C01660E771EF301D7
:10379000828193814C01B12CA12CC0913E05D09126
:1037A0003F05209769F021E030E06091400570917D
:1037B00041058617970710F030E020E0232BD1F465
:1037C00082E090E0FA01918380838EEF9FEFDF919A
:1037D000CF911F910F91FF90EF90DF90CF90BF900E
:1037E000AF909F908F907F906F905F904F903F90A1
:1037F0002F9008958092EF029092F002A092F10231
:10380000B092F20263E1689F9001699F300D11242C
:10381000C20FD31FF3018181833040F082E090E03A
:10382000FA019183808386EF9FEFD1CF2A012B810C
:103830003C81232BF1F4288139819F8191FF2EC097
:10384000232B09F46FC0209143059A81422F490F21
:103850005527551FBA0141E050E06138710514F059
:1038600050E040E0452B09F45DC02A87920F909309
:1038700043058150823008F481C066DF882309F453
:10388000D8C0F3018181813009F48DC008F47BC078
:10389000823009F4C6C090E080E0ADC0232B09F46B
:1038A00041C0209142059A81E22FE90FFF27FF1FB7
:1038B00041E050E0ED3FF10514F050E040E0452BD1
:1038C00089F12A87920F90934205D3CFA081B181CD
:1038D000A20FB31F11966C91060F111D0196295F5F
:1038E0003F4F8417950794F38D859E85089F10019F
:1038F000099F300C189F300C1124C114D104D1F44D
:103900008F8184FF17C00E942525F5E02F0E311C02
:1039100021E08215930508F420E0A701455F5F4F81
:1039200021110EC082E090E0F2019183808387EF45
:103930009FEF4DCF0E9425252FEF221A320AE8CFA4
:1039400088819981E80EF91EF70114830383FFEF44
:10395000CF1ADF0A7A018A818C151D0409F00CF454
:103960008CCFE881F981EE0DFF1D428150E030E0FF
:1039700020E010E000E090E080E0B3CFF12CE12CFB
:10398000D12CC12CE8CF81E090E09C838B83EADAD4
:10399000882309F480CF81E090E00E942F1480E416
:1039A0000E943D1478CF89899A89019661F083E05D
:1039B00090E09C838B8382E090E00E942F1480E44F
:1039C0000E94371468CF8D819E812091E50230914D
:1039D000E60282179307D1F46091E9027091EA023E
:1039E000AE014F5E5F4F8091E7029091E8020E9426
:1039F000AE270097E1F2789422E030E0F2013183C3
:103A00002083892B99F08DEF9FEFE1CE89288A28BA
:103A10008B2869F6029758F6CE0144DE188A1F8675
:103A2000E8CF82E090E09C838B8335CF90E080E00C
:103A3000CECE82E090E0F2019183808385EF9FEF0C
:103A4000C6CE8F929F92AF92BF92CF92DF92EF92AB
:103A5000FF920F931F93CF93DF93EA018C01060F20
:103A6000171FF8018181833098F082E090E09983FC
:103A7000888386EF9FEFDF91CF911F910F91FF9089
:103A8000EF90DF90CF90BF90AF909F908F90089570
:103A900080913E0590913F05892B61F081E090E097
:103AA0002091400530914105232B11F490E080E0F6
:103AB000892B39F482E090E0998388838EEF9FEF21
:103AC000DACF42DE882309F4E0C0F8018181813039
:103AD00009F496C0E8F0823099F4209140053091C5
:103AE0004105E0913E05F0913F0590E080E041E026
:103AF00050E02817390709F0BEC034DA811117C029
:103B0000789481E090E09983888390E080E0B3CF5F
:103B10002091400530914105E0913E05F0913F052F
:103B200090E080E041E050E02817390741F481E05F
:103B300090E00E942F1480E40E943D14E1CF638145
:103B40007481672B11F05483438301967396ECCFF5
:103B5000E0913E05F0913F05E00FF11F2381348194
:103B600022303105D9F4218932892F3F3F4FB1F4FA
:103B7000258136814091E5025091E60224173507F0
:103B800061F5AF014F5E5F4F6091E9027091EA020B
:103B90008091E7029091E8020E94AE27EFEFCE1AE3
:103BA000DE0AEE0AFE0A0D5E1F4F4091400550915D
:103BB000410570E060E0C416D506E606F70644F558
:103BC000009731F27894892B09F49BCF82E090E042
:103BD000998388838DEF9FEF4ECFC114D104E10408
:103BE000F104E1F622303105C8F6CF015BDDE0914A
:103BF0003E05F0913F05E00FF11F108A1786CECFEA
:103C000010E000E090E080E0C12CD12C7601CDCF17
:103C10000097C1F610E000E0812C912C540183E064
:103C2000E82EF12C1AC0E0913E05F0913F05E00F1F
:103C3000F11F83819481029749F4F482E38282E048
:103C400090E00E942F1480E40E943714FFEF8F1A37
:103C50009F0AAF0ABF0A0D5E1F4F809140059091E9
:103C60004105B0E0A0E088169906AA06BB06DCF282
:103C700090E080E0A7CF638174816230710511F418
:103C8000548343830196739634CF82E090E0998306
:103C9000888385EF9FEFEFCE0097B9F48FEFFB019C
:103CA00080832091EF023091F00243E1429FC001F6
:103CB000439F900D1124E0913E05F0913F05E80FE0
:103CC000F91F8285FB01818308950C94E61388E037
:103CD00090E0FA019183808390E080E00895109253
:103CE0003D0510923C05EEE3F5E086E0DF011D9214
:103CF0008A95E9F785ED99E190933B0580933A0524
:103D0000089580913A0590913B0508952F923F9236
:103D10004F925F926F927F928F929F92AF92BF92DB
:103D2000CF92DF92EF92FF920F931F93CF93DF9387
:103D3000CDB7DEB760970FB6F894DEBF0FBECDBF2C
:103D4000F894E0913C05F0913D053196F0933D05E6
:103D5000E0933C057894A0913E05B0913F05BA836D
:103D6000A983109709F4FAC1E0914005F09141054B
:103D7000EF2B09F4F3C128874B875C876D877E871B
:103D80009A878987B88BAF87312C212CF12C512C45
:103D9000412C80914005909141052816390610F478
:103DA000FF2029F1F89480913C0590913D05019701
:103DB00090933D0580933C057894C20160960FB6C0
:103DC000F894DEBF0FBECDBFDF91CF911F910F9151
:103DD000FF90EF90DF90CF90BF90AF909F908F902B
:103DE0007F906F905F904F903F902F900895B1011A
:103DF00090E080E088D4682EEF85F889878181FD86
:103E00003DC0838194810397C9F5258136813C8328
:103E10002B8389859A852817390781F5C101ECD84C
:103E2000782E8823A9F1AF85B8891F968D919C9132
:103E30005097019621E01D964D915C91841795074E
:103E400009F020E02F83B12CA12CEF85F889828125
:103E50008A151B0419F014F0FF20E9F0F885FF2300
:103E600009F46CC1AF85B88950961C921E921F97B9
:103E7000662021F0B10190E080E047D4FFEF2F1AD7
:103E80003F0A2F8538892D5E3F4F388B2F8781CF92
:103E9000B1E0BF83D8CFC0D49E838D83E885EE2365
:103EA000E9F0772009F43CC1AF85B8891F968D9160
:103EB0009C91892B79F0BBE0BA9DC001BB9D900D10
:103EC0001124AF85B889ED91FC91E80FF91F858128
:103ED0009681F9D6BFEFAB1ABB0AB7CF81E0772046
:103EE00039F0EF85F88927853089232B09F080E0A8
:103EF000F82EE12CA114B10439F4AF85B8891796D6
:103F0000EC90E4FAEE24E0F8BBE0BA9D6001BB9DC2
:103F1000D00C1124882309F424C1AF85B889ED9110
:103F2000FC911197EC0DFD1D438154811D962D913F
:103F30003C91429FC001439F900D529F900D1124D0
:103F4000E1105DC001969087878361E070E0878112
:103F500090852DD5EF85F8892189328900811181DD
:103F60000C0D1D1D2F3F320709F44BC0BC01C901C8
:103F70000E94EF27D80116969C938E931597AF85D4
:103F8000B889ED91FC911197EC0DFD1D058116810D
:103F90000115110509F4CDC0ED81FE810E0F1F1F23
:103FA0001A968C918A0DD8018C93E1102FC00F5F67
:103FB0001F4FAF85B889ED91FC91EC0DFD1D128767
:103FC0000187AF85B889ED91FC91EC0DFD1D8581D0
:103FD0009681892B09F4A4C08091E5029091E602B4
:103FE0002B813C812817390709F465C0772011F02F
:103FF00001851285912C812C1A8219824AC005965E
:10400000A2CF28D6F80196838583B9CF8B859C856E
:10401000AD85BE85F80181839283A383B4830B5F52
:104020001F4FC7CFE080F180E80CF91CD701139631
:104030006D917C9114978C918F3F09F473C0E1E0EE
:10404000F0E002C0EE0FFF1F8A95E2F7CF01092EC4
:10405000000CAA0BBB0BFB01408151816281738173
:1040600084239523A623B72321E0892B8A2B8B2B2E
:1040700009F420E0D8012C93D70111968C91080FF8
:10408000111DE981FA813196FA83E983F7E08F0EF9
:10409000911CAF85B889ED91FC91EC0DFD1D8281DD
:1040A00029813A818217130611F00CF0BBCF7720DB
:1040B00011F0128701873F81332391F1AF85B889D1
:1040C000ED91FC91EC0DFD1D61E070E08781908524
:1040D0006ED4AF85B889ED91FC91EC0DFD1DE780A4
:1040E000F08445815681E1E0F0E0662011F0F0E0D7
:1040F000E0E00D811E819C01B101882799278E1B6C
:104100009F0B8DD32C01892B59F0EF85F889808185
:104110009181C80ED91ED60115968D919C91D3D54B
:10412000F12CD8CEF701418150E0C8010E94ED3852
:10413000A3CF86EF482E55245A94CCCEEF85F8892C
:10414000878590890196908B87872585368582178C
:10415000930709F08DCE108A17868ACE512C412CF8
:1041600021CE10E000E02DCF2F923F924F925F9230
:104170006F927F928F929F92AF92BF92CF92DF9277
:10418000EF92FF920F931F93CF93DF9380913E05A1
:1041900090913F0510E000E0892BA9F0D5DA0AEFF5
:1041A0001FEF882381F02090400530904105C09199
:1041B0003E05D0913F05D12CC12C10E000E02C141D
:1041C0003D04A9F47894C801DF91CF911F910F911C
:1041D000FF90EF90DF90CF90BF90AF909F908F9027
:1041E0007F906F905F904F903F902F900895C60101
:1041F0000E94FC17882309F18B819C810397E9F4C5
:104200008F859889892BC9F0B60190E080E07BD238
:1042100021E030E0882311F030E020E044245524F0
:10422000421A530AB12CA12C912C812C8A81881519
:10423000190409F038F4188A1F864FEFC41AD40AFB
:104240006396BDCFE881F981EA0DFB1D85819681DA
:10425000892BA1F161E070E087819085A8D33C01B2
:10426000DBD28C01E881F981EA0DFB1D8185928505
:1042700025813681200F311FAC01421B530B9A015F
:1042800047815085421B530B70E060E00E94F63876
:10429000E881F981EA0DFB1DE780F08445815681B4
:1042A0009301B601C201BBD28C01892B39F0E881A0
:1042B000F981EA0DFB1D8581968105D55FEF851A91
:1042C000950A8BE0A80EB11CB1CF3ECA7894089530
:1042D0002F923F924F925F926F927F929F92AF92F6
:1042E000BF92CF92DF92EF92FF920F931F93CF93E3
:1042F000DF9300D000D0CDB7DEB700913E0510911E
:104300003F05992493940115110509F43EC0A0902E
:104310004005B090410518DA982E8823B1F110922B
:104320003F0510923E0510924105109240051092F3
:104330004205109243058FEF9FEFDC018093EF025F
:104340009093F002A093F102B093F20278947FD39D
:104350001E830D83C12CD12C7601C501B0E0A0E0F5
:1043600089839A83AB83BC8322242A94322C89814B
:104370009A81AB81BC81C816D906EA06FB06F4F027
:10438000C801A1D480E40E943D14892D26960FB661
:10439000F894DEBF0FBECDBFDF91CF911F910F917B
:1043A000FF90EF90DF90CF90BF90AF909F907F9065
:1043B0006F905F904F903F902F900895AD81BE8198
:1043C00015968D919C9116972091E5023091E60209
:1043D00082179307D1F451968D919C91EED5ED8182
:1043E000FE8180819181B12CA12C412C512C320174
:1043F000892B89F5BFEFCB1ADB0AEB0AFB0AED81AB
:10440000FE817396FE83ED83B2CFC114D104E10423
:10441000F10429F7029718F7ED81FE8181899289CD
:104420008F3F980709F029D5AD81BE8152963C9205
:104430002E925197D4CF8A0D9B1DDC018D919C91BA
:10444000009709F040D4BFEF4B1A5B0A6B0A7B0A56
:10445000EBE0AE0EB11CAD81BE818D919C911197A8
:1044600012964C9150E070E060E0441655066606E6
:1044700077060CF328D4BECFCF93DF93EA0128DF71
:10448000811109C082E090E09983888385EF9FEFD6
:10449000DF91CF91089581E090E00E942F1481E098
:1044A00090E09983888390E080E0F2CF11DF109252
:1044B0003B0510923A05089542E050E06FE873E042
:1044C0000C944D14FF920F931F93CF93DF938A01A7
:1044D000EC01C60FD71FF980B9D20897F816190654
:1044E00071F068F082E090E0F801918380838EEFB4
:1044F0009FEFDF91CF911F910F91FF9008956C81F5
:104500007D818E819F814B810E94E216811108C0BE
:1045100082E090E0F8019183808384EF9FEFE9CF00
:10452000F9800E94DD164F2D50E0BE01685F7F4F7D
:104530000E94ED3889810E944C1781E090E0F801DB
:104540009183808390E080E0D4CFDF92EF92FF925E
:104550000F931F93CF93DF938A01EC01C60FD71FF0
:104560000E94DD167C01D98071D2DD2059F00297BE
:1045700021E030E0D816190619F010F030E020E004
:10458000232B79F482E090E0F801918380838EEF11
:104590009FEFDF91CF911F910F91FF90EF90DF90F0
:1045A0000895EF2841F482E090E0F8019183808340
:1045B00084EF9FEFEECFF9800E94DD164F2D50E083
:1045C000BE016E5F7F4F0E94ED3889810E944C17BB
:1045D00081E090E0F8019183808390E080E0D9CF82
:1045E0008CE592E29093450580934405089580916F
:1045F00044059091450508950895FC0111821082AB
:10460000938382830895DB011D921C92DC01129634
:10461000ED91FC9113977183608313967C936E9355
:1046200012970895FC0180819181DB018D939C9309
:10463000A081B181109741F08D919C9191838083ED
:10464000892B11F4F383E2830895FC018081918129
:10465000DB018D939C93892B11F4738362837183A7
:1046600060830895FC0111821082938382830895F0
:10467000CF93DF931F921F92CDB7DEB71A821982B4
:10468000F894BE016F5F7F4F8BE495E0CBDF8981AB
:104690009A81009709F017D389819A81892B89F72C
:1046A000BE016F5F7F4F8FE495E0BCDF89819A8107
:1046B000009709F008D389819A81892B89F778942A
:1046C0000F900F90DF91CF910895CF93DF931F92BA
:1046D0001F92CDB7DEB71A821982F894BE016F5FC0
:1046E0007F4F87E495E09EDF89819A81009709F0EA
:1046F000EAD289819A81892B89F778940F900F905B
:10470000DF91CF91089581E0089590E080E00895D1
:10471000EF92FF920F931F93CF93DF931F921F92FD
:10472000CDB7DEB71A8219828091460507EF1FEFD9
:104730008823A1F1F894BE016F5F7F4F8FE495E06D
:1047400071DF789489819A81EE24E394F12C892B8E
:1047500051F4F894BE016F5F7F4F8BE495E062DF08
:104760007894F12CE12C89819A810EEF1FEF00974C
:10477000A9F0FC014281538164E070E076D68C019F
:10478000892B61F0F89469817A81C701880F991F9C
:10479000880F991F855B9A4F58DF7894C8010F9056
:1047A0000F90DF91CF911F910F91FF90EF9008959F
:1047B0000F931F93CF93DF9300D01F92CDB7DEB737
:1047C0001C821B821A8219828091460507EF1FEF17
:1047D0008823C1F0AE014D5F5F4F64E070E0CE0111
:1047E0000196B6D68C01892B69F4E981FA818B8117
:1047F0009C8193838283F89469817A8187E495E030
:1048000002DF7894C8010F900F900F900F90DF9106
:10481000CF911F910F910895BBD7049608958F9261
:104820009F92AF92BF92CF92DF92EF92FF920F933F
:104830001F93CF93DF931F921F92CDB7DEB71A82DB
:104840001982BC016F5F7F4F6330710598F0AA2415
:10485000AA94BA2CC5010F900F90DF91CF911F91B0
:104860000F91FF90EF90DF90CF90BF90AF909F900F
:104870008F9008954115510551F3480159018A015E
:104880006C01CADF8815990511F7E114F104F9F2FA
:104890008E0D9F1DA816B906D0F28091460588237B
:1048A000F1F0F894B501645071099701AE014F5FC2
:1048B0005F4FC8010496E1D65C01892B71F48981B0
:1048C0009A81F80193838283C601880F991F880F0C
:1048D000991FB801855B9A4F96DE7894BBCF87EF1E
:1048E000A82EBB24BA94B6CFAF92BF92CF92DF92DC
:1048F000EF92FF920F931F93CF93DF931F921F921C
:10490000CDB7DEB71A821982892B09F047C061152D
:10491000710509F443C04115510509F43FC0211543
:10492000310509F43BC001151105C1F1809146051F
:104930008823B9F179016A015B01F894BE016F5FC8
:104940007F4F87E495E06EDE789489819A810097A5
:1049500059F1DC0112966D917C91A8010496A6D6BE
:104960008C01E981FA81D501ED93FC9382819381D9
:104970000496F601918380834FDFD7018D939C933A
:10498000C8010F900F90DF91CF911F910F91FF9071
:10499000EF90DF90CF90BF90AF9008950FEF1FEF93
:1049A000EFCF07EF1FEFECCF0EEF1FEFE9CFCF9365
:1049B000DF93EC01672B71F4F4D68C179D0760F040
:1049C000E7D62496C80FD91FE6D68C0F9D1FDF911E
:1049D000CF910895E3D6F1CF90E080E0F8CF0F9328
:1049E0001F93CF93DF932091460521112BC08B019C
:1049F000EC018BE495E001DE8FE495E0FEDD87E4D9
:104A000095E0FBDD97D00097C1F4CBD670E060E075
:104A1000CEDF43EF52E062E070E081D1009769F4AD
:104A20008091F3029091F402CED6B801CE0103D565
:104A3000009719F421E020934605DF91CF911F9153
:104A40000F91089584EF9FEFF8CFA8C6AAC6CF9321
:104A5000DF93AAD6EC01892B11F40ADE36DECE01F3
:104A6000DF91CF910895CF93DF939ED6EC01892BF0
:104A700009F4FEDDCE01DF91CF9108958091F3021C
:104A80009091F4020895CF93DF9380914605D0E092
:104A9000C0E08823D1F09CD6EC01892BB1F4E8DD8D
:104AA00014DE8091F3029091F402E7D1E8D2EC0198
:104AB000892B59F48BE495E0D5DD8FE495E0D2DDC8
:104AC00087E495E0CFDD10924605CE01DF91CF91CE
:104AD0000895EF92FF920F931F93CF93DF93EC0112
:104AE0007A018B010F5F1F4F0E9DA0010F9D500D8E
:104AF0001E9D500D112470E060E00E94F63890E099
:104B000080E0F0E0E0E02FEFE816F90639F4DF91FD
:104B1000CF911F910F91FF90EF9008951A82198203
:104B20002883309711F0D283C1830196FE01C00F14
:104B3000D11FEACFCF92DF92EF92FF920F931F9394
:104B4000CF93DF9308E816E00C7F43E050E065EF79
:104B500072E08BEF92E01CD485EFE82E82E0F82E15
:104B60009BEFC92E92E0D92ECFE0D7E0D7014D912F
:104B70005D917D01F601619171916F011983088347
:104B80005D834C835B834A837F836E839B012F5FAE
:104B90003F4F249FC001259F900D349F900D1124FD
:104BA000998788870115110511F0C80192DF888562
:104BB0009985080F191F2A96FBEFEF16F2E0FF0602
:104BC000A9F6E5E5F5E080E391E0DF019C011D92A7
:104BD00021503040E1F71092540510925305109285
:104BE0002E0710922D071092320710923107109263
:104BF000300710922F07109234071092330710924B
:104C00003607109235071092380710923707109226
:104C10003C0710923B0710923A0710923907109206
:104C20003E0710923D071092400710923F071092E6
:104C30000C0710920B0710920E0710920D0790E0D0
:104C400080E0DF91CF911F910F91FF90EF90DF9067
:104C5000CF9008950097F1F0F894ABEFB2E0EFE059
:104C6000F7E030E020E04D915D9148175907A8F03A
:104C7000428153814115510581F08AE0829FF00104
:104C8000839FF00D1124E15FF84F8081918100979F
:104C900059F4789490E080E008952F5F3F4F3A9662
:104CA0002330310501F7F5CFDC0111966D917C9130
:104CB000718360834150510953834283FC012193E6
:104CC000CF0178940895009749F1DC018E918530E9
:104CD00041F4E0910D07F0910E073097F9F0CD0106
:104CE00019948530D8F4282F30E0F8948FEF8C9306
:104CF0008AE0829FF001839FF00D1124E15FF84F5D
:104D00008081918112969C938E931197B183A08399
:104D10008281938101969383828378940895CF92C0
:104D2000DF92EF92FF920F931F93CF93DF939C013B
:104D300088E595E08C7F4115510509F49BC021154C
:104D4000310509F497C06115710509F493C07A0122
:104D5000AB01B9016D5F7F4F6C7F9B012F5F3F4FB0
:104D6000249F8001259F100D349F100D1124F8946D
:104D700020912D0730912E07232B59F420913507D0
:104D8000309136072115310569F12017310708F0F8
:104D900058C02091370730913807232B91F4209188
:104DA000350730913607820F931F20913F073091CE
:104DB00040072115310509F441C02017310708F0DB
:104DC00056C07894CFEFDFEF86EF9FEFF701D183E6
:104DD000C083DF91CF911F910F91FF90EF90DF90F3
:104DE000CF900895C3E0D0E0C0905305D090540513
:104DF0002DE231E02C193D092017310710F32AE08C
:104E00002C9FF0012D9FF00D1124E15FF84F91834D
:104E100080835583448353834283778366831187DA
:104E20000087009709F055DE0C0D1D1D10935405E9
:104E300000935305789490E080E0C8CFC4E0D0E0C0
:104E4000D3CFC3E0D0E02AE02C9FF0012D9FF00DDE
:104E50001124E15FF84F918380835583448353830A
:104E6000428377836683009729F333DEE3CFC4E080
:104E7000D0E0E9CF8FEF9FEFACCF9C010397029773
:104E800008F069C0F89484E09AE0482F50E02417B5
:104E900035070CF44DC091E08AE0829FF001839FBA
:104EA000F00D1124E15FF84F1182108215821482F7
:104EB00013821282178216829923B1F180912D07F5
:104EC00090912E07892BA9F4209135073091360750
:104ED0002115310571F08091530590915405821B85
:104EE000930B9093540580935305109236071092BC
:104EF00035078091370790913807892BA9F42091C5
:104F00003F07309140072115310571F0809153051D
:104F100090915405821B930B9093540580935305F5
:104F20001092400710923F07789490E080E0089537
:104F3000949FF001959FF00D1124E15FF84F40819F
:104F40005181452B31F440855185452B11F4815019
:104F50009CCF90E0A1CF8FEF9FEF089541155105B1
:104F600049F1009739F16115710521F1F89420910B
:104F70000B0730910C07232BB9F420910D073091CA
:104F80000E07232B89F490930C0780930B077093E3
:104F90000E0760930D07789425E030E090E080E004
:104FA000FA0131832083089578942FEF3FEF86EF45
:104FB0009FEFF6CF8FEF9FEF0895059769F4F89470
:104FC00010920C0710920B0710920E0710920D070B
:104FD000789490E080E008958FEF9FEF0895611539
:104FE000710519F4F0E0E0E011C08530910581F41D
:104FF000E0910B07F0910C073097A1F3CB010196DC
:105000001995009779F3FC0185E08193CF0108950C
:105010009C01235031092230310520F72AE0289FD6
:10502000D001299FB00D1124A15FB84F2D913C9163
:105030001197232BB9F216962D913C9117972617AD
:10504000370780F2F89412962D913C911397211511
:10505000310529F0ED91FC911197309711F4789476
:10506000C1CF4181528111965C934E9321503109F9
:1050700013963C932E93129781937894C7CFE5E8CB
:10508000F6E086E8DF011D928A95E9F7E5E5F5E0AF
:1050900080E391E0DF019C011D9221503040E1F757
:1050A0001092540510925305EFE0F7E082E3DF0120
:1050B0001D928A95E9F7EBE0F7E084E0DF011D92AD
:1050C0008A95E9F790E080E00895CF93DF93C0914F
:1050D0000103D0910203CF3FDC0759F435D49093FC
:1050E00002038093010397FF09C0D0930203C0938A
:1050F000010384EF9FEFDF91CF91089590E080E06E
:10510000FACF8230910528F48093410790E080E047
:1051100008958FEF9FEF08954F925F926F927F9265
:10512000AF92BF92CF92DF92EF92FF920F931F93B5
:10513000CF93DF931F921F92CDB7DEB71A821982E9
:10514000009709F479C06115710509F475C02091C3
:1051500001033091020307EF1FEF2F3F3F4F09F488
:1051600045C06B015C01412C512C3201F12CE12C2A
:1051700010E000E09E012F5F3F4FA6014E195F092E
:10518000B5016E0D7F1D809101039091020340D403
:10519000892B09F04BC089819A81009741F4E11471
:1051A000F10429F420914107222309F442C0E80EBA
:1051B000F91EEC14FD04D0F480E8481684E8580683
:1051C0008EE16806710420F560E070E0CB010E947A
:1051D000BF322AE0420E511C611C711C0A3F4FEF86
:1051E000140721F0043F8FEF1807A1F4C8010F90B6
:1051F0000F90DF91CF911F910F91FF90EF90DF9073
:10520000CF90BF90AF907F906F905F904F90089538
:1052100001EF1FEF81E090E0013F2FEF120711F047
:1052200090E080E0892B09F4A5CFE0CF04EF1FEFD9
:10523000DDCF0AEF1FEFDACF0FEF1FEFD7CF4F927F
:105240005F926F927F92AF92BF92CF92DF92EF9276
:10525000FF920F931F93CF93DF931F921F92CDB7AF
:10526000DEB71A821982009709F479C061157105B9
:1052700009F475C0209101033091020307EF1FEF7D
:105280002F3F3F4F09F445C06B015C01412C512C6D
:105290003201F12CE12C10E000E09E012F5F3F4F26
:1052A000A6014E195F09B5016E0D7F1D80910103A6
:1052B0009091020360D3892B09F04BC089819A81B8
:1052C000009741F4E114F10429F4209141072223CD
:1052D00009F442C0E80EF91EEC14FD04D0F480E895
:1052E000481686E9580688E96806710420F560E0EA
:1052F00070E0CB010E94BF322AE0420E511C611CBB
:10530000711C0E3F4FEF140721F0043F8FEF180779
:10531000A1F4C8010F900F90DF91CF911F910F91D1
:10532000FF90EF90DF90CF90BF90AF907F906F9005
:105330005F904F90089502EF1FEF81E090E0023FF1
:105340002FEF120711F090E080E0892B09F4A5CF30
:10535000E0CF04EF1FEFDDCF0EEF1FEFDACF0FEF3F
:105360001FEFD7CF80910103909102038F3F9807E1
:1053700049F0E2D2892B49F48FEF9FEF909302031B
:105380008093010390E080E0089584EF9FEF0895FB
:10539000CF92DF92EF92FF920F931F93CF93DF9301
:1053A00021E04115510509F020E04150510921113A
:1053B0002CC0DC01FB01D12CC12C21E022C03FEF2D
:1053C000C31AD30A7D010D911D91E701EA80FB808C
:1053D000E016F106A8F420813181E280F380F182A9
:1053E000E08233832283ED90FC9011979D0122503F
:1053F0003109E901F982E88211961C930E9320E0AD
:105400003296C416D506D8F2D2CFDF91CF911F9134
:105410000F91FF90EF90DF90CF900895FC01680FFF
:10542000791F90E080E0E617F70709F408952191CD
:10543000820F911DF8CF20914207211113C045DE44
:10544000009791F410924807109247071092460770
:1054500010924507109244071092430721E02093D1
:105460004207089584EF9FEF0895AF92BF92CF92C5
:10547000DF92EF92FF920F931F93CF93DF930097EA
:1054800009F460C04630510508F45CC02091420721
:10549000C7EFDFEF222309F449C08C01060F171F65
:1054A000F801C080D180C114D10409F44EC0960126
:1054B0002A5F3F4F4217530708F447C07C01809191
:1054C00047079091480793838283B6016C5F7F4FB3
:1054D0005801A60EB71EC801A1DFF5019183808394
:1054E00064E070E0C80118DEEC01892BF9F481E07A
:1054F00090E007DEB601C80104960EDEEC01892BB0
:1055000091F462E070E0C50107DEEC01892B59F4EB
:10551000C701D9DB80914707909148070196909386
:1055200048078093470790E080E0EBDDCE01DF91F4
:10553000CF911F910F91FF90EF90DF90CF90BF9090
:10554000AF900895CFEFDFEFF1CFC9EFDFEFEECFF0
:105550006F927F928F929F92AF92BF92CF92DF9283
:10556000EF92FF920F931F93CF93DF9300D01F9280
:10557000CDB7DEB7009709F47AC04115510509F49B
:1055800076C02091420707EF1FEF222309F44DC098
:105590003A017B015C0164E070E0CE0101964FDED0
:1055A0008C01892B09F041C009811A81011511056F
:1055B00009F45AC0480186E0880E911CB701680DB5
:1055C000791D809103039091040309DD6C0100971C
:1055D00009F450C0A70170E060E00E94F6388981AC
:1055E0009A81AB81BC81EC0CFD1CF70181939193F6
:1055F000A193B1937F0181E090E083DDB801C70101
:105600001EDE892B31F562E070E0C701800F911F2B
:1056100016DE8C01892BE9F490E080E072DDF50163
:10562000D182C082F30191828082C8010F900F90D5
:105630000F900F90DF91CF911F910F91FF90EF90FE
:10564000DF90CF90BF90AF909F908F907F906F90A2
:10565000089590E080E055DDF50111821082F3019C
:1056600011821082C6012FDB09EF1FEFDECF0FEF93
:105670001FEFDBCF06EF1FEFD8CF0097A1F041154A
:10568000510589F02115310571F0F90136966E1733
:105690007F0748F0DC012D933C93DA01ED93FC93F6
:1056A00090E080E008958FEF9FEF0895AF92BF9252
:1056B000CF92DF92EF92FF920F931F93CF93DF93DE
:1056C000009709F45FC04115510509F45BC06530CE
:1056D000710508F457C020914207C7EFDFEF22237E
:1056E00091F1DC01CD90DC9011971296ED91FC9137
:1056F00096012A5F3F4FC9EFDFEF2617370719F5ED
:10570000C0914307D0914407209749F521E030E04C
:1057100030934407209343077A018C01F0934607A6
:10572000E09345075601B4E0AB0EB11CB50176DE3F
:105730000A0D1B1DF801208131818217930729F57D
:10574000D701CD92DC92CE01DF91CF911F910F91C5
:10575000FF90EF90DF90CF90BF90AF900895209191
:105760004507309146072F5F3F4FCCEFDFEFE21741
:10577000F30790F2CBEFDFEF2E173F0768F2D0E090
:10578000C0E0CACFCFEFDFEFDECFC3EFDFEFDBCF7D
:1057900084E090E0089582E090E008958CEF9FEF20
:1057A000089580E290E0089510924807109247070C
:1057B0001092460710924507109244071092430733
:1057C00090E080E00895909304038093030308958C
:1057D00080914207882391F0C5DD009789F41092EB
:1057E00048071092470710924607109245071092FB
:1057F00044071092430710924207089590E080E01A
:105800000895009749F06115710531F0FC0111828E
:105810001082FB01118210820895F3CF26E030E060
:1058200040E855E260E070E090E080E008D061E0A0
:105830008DE00E94913460E08DE00C94CD34813095
:10584000910571F01CF4892B39F00895823091058F
:1058500051F0039759F0089586E597E00C94EC35E4
:1058600083EF97E0FBCF80E998E0F8CF8DE299E0F5
:10587000F5CF1F920F920FB60F9211240BB60F9215
:105880002F933F934F935F936F937F938F939F9348
:10589000AF93BF93EF93FF9383E89FEF909325011E
:1058A0008093240180914B0790914C07019721F43C
:1058B00061E08DE00E94CD34BFD0FF91EF91BF91A8
:1058C000AF919F918F917F916F915F914F913F9198
:1058D0002F910F900BBE0F900FBE0F901F90189539
:1058E00083E89FEF9093250180932401A3E7B0E024
:1058F0008C918E7F8C93E0E2F1E080818C7F8083BD
:10590000E1E2F1E08081877E808380818460808312
:1059100080818C7F80838C9181608C930895E3E7F4
:10592000F0E0808190819E7F90838170089581E076
:10593000089510924907089568EE73E080E090E0C2
:105940001ED690E080E0089526E030E040E052EC82
:1059500061E070E090E080E072DF86E597E00E9411
:105960002235892B29F086E597E00E943C35F5CF5A
:1059700090E080E00895CF92DF92EF92FF920F9334
:105980001F93CF93DF936B017A01E901198218828B
:1059900086E597E00E942235892B79F18601CC2497
:1059A000C39482E0D82E80914907811111C086E509
:1059B00097E00E943C350297B1F7C0924907F80181
:1059C000D1928F0188819981019699838883EBCF49
:1059D000888199818E159F0580F486E597E00E9465
:1059E0003C358F3F9807A1F3F80181938F0188819F
:1059F0009981019699838883EBCF90E080E0DF91D5
:105A0000CF911F910F91FF90EF90DF90CF9008956D
:105A10000F931F93CF93DF93EA01890186E597E007
:105A20000E947C38F801D183C08390E080E0DF9150
:105A3000CF911F910F91089580914A0791E0980F9F
:105A400090934A07882349F021E030E030934C07D7
:105A500020934B0780934A07089578940E94F1049D
:105A6000F89480914A078150F5CF0F931F93CF93FD
:105A7000DF9310925B0A10925A0AB7D5CFDEC0911D
:105A80001B03D0911C031982188268E873E180E03F
:105A900090E00E94800470E060E090E080E00E946E
:105AA000FB02009709F042C00E941F0BF894789403
:105AB000BE016F527F4F8A819B810E94FE02892B1B
:105AC00071F46FEF7FEFCB010E948F030E947A0485
:105AD000882329F081E0FE01E952FF4F8083F8948A
